:020000040000FA
:10000000B006202085010000890100008B0100005E
:1000100000000000000000000000000000000000E0
:100020000000000000000000000000008D01000042
:1000300000000000000000008F010000910100009E
:1000400093010000E50B0000930100009301000004
:100050007D0900009301000093010000930100005E
:100060000000000093010000930100000000000068
:1000700000000000930100009301000093010000C4
:10008000930100009301000045120000930100005D
:100090009301000093010000000000000000000038
:1000A0009301000093010000000000000000000028
:1000B0009301000000000000930100009301000084
:1000C00000F002F800F04FF812A030C808382418E9
:1000D0002D18AC4201D100F046F80FCCA246AB4639
:1000E0000CA730CF2D1B083F3F197C427F1E544484
:1000F0002D090426F441641EAC4201D300F033F80C
:100100000126334200D0FB1A3343984754465D46DC
:10011000DFE700008C1F00009C1F000000000000B3
:100120007047000000000000002300240025002686
:10013000103A01D378C1FBD8520700D330C100D5A3
:100140000B60704710B5752902D100F0A1F810BD01
:10015000732902D100F045FB10BD002010BD1FB572
:100160001FBD10B510BD00F087FB1146FFF7F7FF6C
:1001700001F0BCF900F09FFB03B4FFF7F2FF03BCF2
:1001800000F0F4FB06480047FEE7FEE7FEE7FEE767
:10019000FEE7FEE703480449024A044B70470000AB
:1001A000C1000000B0052020B0062020B0052020AE
:1001B0000FB41CB50C0007AA009007D04142A14221
:1001C00002D30019401E01E00020C043074B7B44CE
:1001D00069460190069800F0D6FA0020002C01D064
:1001E000009908701CBC08BC04B01847DB0500006F
:1001F00070B5044685690068C10601D5302600E067
:100200002026C00707D070BD62683046A1689047BD
:10021000206A401C20626D1EF6D570BD70B5044684
:1002200085690078C00707D170BD6268A168202089
:100230009047206A401C20626D1EF6D570BD70B5D7
:100240000C460546012A05D02878800600D5EA69C3
:10025000002302E0012305E05B1C934202D2E05C34
:100260000028F9D1A869E618C01AA861286AC01840
:1002700028622846FFF7BCFF04E06A682078A96876
:10028000641C9047B442F8D32846FFF7C7FF70BDFF
:10029000F7B5002575291068009914A611D0C0463D
:1002A000C046002802DA404211A608E00099096819
:1002B0008A0701D50FA602E0490704D50EA601253D
:1002C00001E0C046C046009F0024243704E000F04F
:1002D0008CFA30313955641C0028F8D12B4632464F
:1002E0002146009800F0F1F9FEBD0000000000007A
:1002F0002D0000002B00000020000000F3B5044694
:10030000002081B020622046E1688847002872D032
:10031000252802D06268A168ABE0594F00267F44CF
:100320002046E16888472028054608DB312D06D2A3
:10033000781920380078002801D00643F0E7B0078C
:1003400001D5042086430020E0610746A0612A2DE4
:100350000AD0284601F024FC002827D0B800001954
:10036000303D0090856119E00298BA00121902C868
:10037000916102902046E1688847012F054617D118
:10038000E06900281FDA202086431CE000980A213B
:100390008069484300994019303888612046E168F7
:1003A0008847054601F0FCFB0028EFD1012F0AD059
:1003B0002E2D08D12046E1688847054620200643B7
:1003C0007F1C022FC3DBA069002803DA4042A06132
:1003D00001200643F00701D0102086436C2D0BD07E
:1003E000682D09D04C2D3CD06A2D38D0742D38D0D2
:1003F0007A2D36D016E040E0E1682F462046884747
:10040000B842054609D16C2F29D001208002E1684D
:10041000064320468847054604E06C2F1DD0FF2088
:1004200001300643002D28D028464138192803D82A
:100430000120C00206432035204626602946029A44
:100440001646FFF77FFE002810D001280BD0F61DBE
:10045000F008C0000830029055E74020E1E7802016
:10046000D5E70020D3E7361D02964CE762682846A0
:10047000A1689047206A401C44E7206AFEBD000046
:10048000421B0000D2B210B513029A1813049A1836
:1004900000F001F810BD01E004C0091F0429FBD2DF
:1004A0008B0701D50280801CC90700D002707047FD
:1004B00000290BD0C30702D00270401C491E02293C
:1004C00004D3830702D50280801C891EE3E7002243
:1004D000EEE70022DFE7704770477047F0B5FF2571
:1004E0002D04C609C209FF2704462E400137CB0957
:1004F0003E4348402A402B400746002A6BD0002B41
:1005000069D0AA4267D0AB4265D0002800DA3246F3
:100510000125ED0529432C4309022002090AD21ABC
:100520004B0C7F24E31A434C000A7C44E35C7D249B
:100530002404121914145B00A218884201D3521C1F
:1005400000E0400049420C465C4324115C43DB015F
:100550006415E318040A5C43C502200D0C464443AD
:100560006419250A5D432303EC0C0D466543000323
:100570000019EB184C42A34201D35B18401CD40570
:100580002018002B07D05B00C91804D3401C002999
:1005900001D1400840003F2189048A4209D3002A42
:1005A00008DC1106090F04D0032149074018C00FC9
:1005B000C007F0BD01224100120689187F225206B1
:1005C0009142F6D205214907C84201D59010F0BDED
:1005D000FF20C005F0BD002F00DA32461648AA42BF
:1005E00007D2AB4205D21902090E17D0F80FC00787
:1005F000F0BDFF2563002D06AB42F9D84900A942A2
:10060000F6D8AB4201D1A942F2D0A94201D10021D2
:1006100001E061004908D0050843F0BD1102090E50
:10062000FBD0FF200243D005F0BD0A46014610462C
:1006300054E70000471900000000C07F0102C21506
:1006400004D00123DB071943002A0ADB9E239A1AF0
:1006500002D40846D0407047FF2241001206914262
:1006600001D900207047C017C04370471F22030CF8
:1006700002D10F2200041CD0030E01D10002083A5F
:10068000030F01D10001121F830F01D18000921EC0
:10069000002801DB4000521ED205511802125118E9
:1006A0001922904004D3491C002801D1490849006F
:1006B00008467047C10FC90700D040420122920787
:1006C0001143D3E701218907D0E7FFB504460D4662
:1006D00081B0243000902168880604D51022E0699A
:1006E0009143216000E00120A84201DD471B00E0AA
:1006F00000270498A1697A191018081AA0612078B7
:10070000C00602D42046FFF773FD002608E00398D8
:100710006268A168805D9047206A401C761C206258
:1007200004988642F3DB2078C0060AD52046FFF7FE
:100730005FFD06E06268A16830209047206A401C97
:10074000206238467F1E0028F4DC07E000986268CB
:10075000A168405D9047206A401C206228466D1EBB
:100760000028F3DC2046FFF759FD2078000602D56B
:10077000022005B0F0BD0120FBE7000001694A1C22
:1007800002610878704700B58FB002910021059191
:100790000549019379440391114604906846FFF797
:1007A000ADFD0FB000BD0000E5FFFFFF0CC908392B
:1007B0009A4202D2531C0B601070704710B5436907
:1007C000002B02D0C046C04601E0FFF738FD0120F3
:1007D00010BD1278014624310A7000224A700122AD
:1007E000ECE711680022D243E8E701468008081AC6
:1007F00002091018020A1018020C1018C008820012
:1008000012185200891A01E0401C0A390A29FBD249
:100810007047000010B5FF231B0644009C421DD802
:100820004C009C421AD80346124A0B4307D4401A84
:1008300002D3EFF3008010BDEFF3008010BD081A63
:1008400003D3EFF30080904305E0EFF30080012134
:100850009043C907084380F3008810BD0D231B0493
:100860001A4204D01146002000F02DF810BD00F00F
:1008700041F810BD00000090754600F043F8AE4608
:10088000050069465346C008C000854618B020B52B
:10089000FFF780FC60BCB64600260027C0C5C0C577
:1008A000C0C5C0C5C0C5C0C5C0C5C0C5403D49085C
:1008B00049008D46704710B50446C046C0462046E4
:1008C000FFF75AFC10BDC80212D54803400F00289C
:1008D00004D0C803C043012188407047EFF3008073
:1008E0000001000903210907084380F300887047CD
:1008F0000020704710B5024800F008F810BD000055
:100900000000C07F004870470000202010B50C4652
:100910001107090F092904D00A290AD008290CD186
:1009200004E011460820FFF7CEFF06E0510606D589
:1009300001E0510601D50120C007214610BDD106B6
:1009400007D501010909CC084907000E0006044338
:1009500009E0410F20024907000A0143200E00066A
:100960001D22D14101430846E7E700000149182054
:10097000ABBEFEE72600020070470000F0B581B074
:100980001F4E304628380068C0B20A282ED11F48B2
:100990000168491C01601E4F386880B2FFF792FE63
:1009A0001C4C214601F09EF91B4D2946FFF796FD90
:1009B00079681A4A106088B2FFF784FE214601F078
:1009C00091F92946FFF78AFD15490860154901206C
:1009D000087054210B4A515C032901D00A49087060
:1009E000400231680143316001B0F0BD5420054937
:1009F000085C032802D004480321017001B0F0BD57
:100A00004810004064002020A8052020600020201D
:100A1000806255403333534000F07F4598012020D9
:100A2000D8002020D4002020B0B50A78032313403A
:100A30000B4A84580B4D2540EB18A92424061B199A
:100A40008350072212064B681340112424020559D3
:100A50009543EA180251001949780161B0BDC046BA
:100A600008080000FCFFFF00811E091F00BFFCD228
:100A700070470000F0B53C4A82183C4BC318087917
:100A80004E793B4D3B4C002E23D0202804D0052628
:100A9000F601002803D003E0374E002800D1882655
:100AA000576F2F4037435767976F2F4037439767EC
:100AB000566B26405663966B264096630026566515
:100AC00096658F26F6435F6837405F609F683740C2
:100AD0009F608E79096820280BD0002819D1491E03
:100AE0005160D76E2F4088210F43D7661746703765
:100AF00019E0491E5160D16E29401F4F3943D1661C
:100B0000116F294039431167012149071B4D1746D1
:100B100009E049085160D76E2F400521C9010F43F4
:100B2000D766174670373C682C400C433C60D16A4E
:100B3000104C2140D162116B214011630021D1641E
:100B400011658F21C943D46F0C40D4671C680C40D9
:100B50001C600643BD2030401168094B0B40C01893
:100B6000801C1060F0BDC04604180000841800000E
:100B700024493E008888FDFF01040000FFFFFFCFED
:100B80004000FFCF10B507239B0419409200801846
:100B9000024A84589C436118815010BD30180000EF
:100BA00010B5029CA400001911431943014A815059
:100BB00010BDC0465018000092008018014A8150B4
:100BC0007047C0461018000010B5012212038318A8
:100BD0000C789C604B7883508978014A815010BD15
:100BE0000C1100001249084610380068114A0240F2
:100BF0000DD00B6813430B60510D09D1C1040CD407
:100C000081040FD4000402D50B4804210170704701
:100C1000094901220A70C104F2D5074902220A706B
:100C20008104EFD5044903220A700004ECD4EEE7F6
:100C300048300A4000B020009C012020F0B588B068
:100C40000493029010463038C0B2092805D8052018
:100C500050435C4A8018F0380FE010466138C0B24B
:100C60001A2800D2203A203AD0B23A2804D850B2FA
:100C70008000534A105800E0504800900D980690AC
:100C8000FF20C001059000263246019605E0039A38
:100C9000521C062A019E00D18DE0052A079602D03B
:100CA0000098805C079002980392101806E0E34DCC
:100CB000AB5CA343AB54361D082EE8D084B27F2C26
:100CC0001CD873189DB23F2D18D8079DF540ED072D
:100CD000069F00D0049F07221A40012595401A0163
:100CE000059B1A4013189AB2002F03D0D34FBB5C58
:100CF0002B4302E0D14FBB5CAB43BB547F2C1DD8D0
:100D0000751C6B189AB23F2A18D8079AEA40D20786
:100D1000069F00D0049F07221A40012595401A0122
:100D2000059B1A4013189AB2002F03D0C34FBB5C27
:100D30002B4302E0C14FBB5CAB43BB547F2C1DD89F
:100D4000B51C6B189AB23F2A18D8079AEA40D20706
:100D5000069F00D0049F07221A40012595401A01E2
:100D6000059B1A4013189AB2002F03D0B34FBB5CF7
:100D70002B4302E0B14FBB5CAB43BB547F2C9AD8F2
:100D8000F41C63189AB23F2A95D8079AE240D2071A
:100D9000069D00D0049D07221A40012494401A01A8
:100DA000059B1A4013189AB2002D00D17FE7A34D7E
:100DB000AB5C23437EE708B0F0BDC0466220000074
:100DC000B81E00002B200000F0B583B00293019103
:100DD00006461078002812D07F2E10D8089C551C8B
:100DE0000094B7B2C2B238460199029BFFF726FFC2
:100DF0002878002803D06D1CB61D7A2FF0D300F0A0
:100E0000C7F803B0F0BD000080B5002801D102464C
:100E100000E0FF22012081028848FFF733FB00F049
:100E2000B7F880BDF0B583B001200702BB4E376034
:100E300037650290450235603120C4437D200002B1
:100E4000FFF712FE641CF9D33760376535607824EC
:100E50002046FFF709FE376137642046FFF704FE9E
:100E600035612046FFF700FE204600F067FA01904A
:100E7000376137642046FFF7F7FD35602046FFF7FE
:100E8000F3FD376037652046FFF7EEFD0198002837
:100E900001D0002122E03760376535607824204694
:100EA000FFF7E2FD376137642046FFF7DDFD35616E
:100EB0002046FFF7D9FD7A2000F040FA0190376113
:100EC00037642046FFF7D0FD35602046FFF7CCFDA4
:100ED000376037652046FFF7C7FD01995848017014
:100EE000AE2000F091FCD52000F08EFC802000F0B8
:100EF0008BFCA82000F088FC3F2000F085FCD3206C
:100F000000F082FC002000F07FFC4024204600F02E
:100F10007BFC8D2000F078FC142000F075FC202074
:100F200000F072FC022000F06FFCA12000F06CFCCD
:100F3000C82000F069FCDA2000F066FC122000F006
:100F400063FC812000F060FCCF2000F05DFCD92024
:100F500000F05AFCF12000F057FCDB2000F054FCBC
:100F6000204600F051FCA42000F04EFCA62000F02A
:100F70004BFC2E2000F048FCAF2000F045FC02980E
:100F800081022E48FFF7A5FA00F002F803B0F0BD89
:100F9000F0B585B00120060245020020274C5F4FC6
:100FA00002A961C101905038C0B200F02DFC029836
:100FB00000F02AFC102000F027FC3E603E653D60FA
:100FC00078252846FFF750FD3E613E642846FFF72E
:100FD0004BFD039838612846FFF746FD1848007816
:100FE000002800D07A25049E284600F0A7F940206A
:100FF00000F0A4F9029D605D00F0A0F96D1C802D49
:10100000F9D1464F3E613E6478252846FFF72CFD16
:10101000039E3E602846FFF727FD04983860049839
:10102000386528463546049EFFF71EFD803401983A
:10103000401C0828B6D105B0F0BDC046A80120204C
:10104000A401202010B50124A0071249FFF7ECFCF1
:1010500011484168114A0A402104511841608168D1
:101060000F4A0A402106511881600E4900220A6089
:101070004C607D2149024161816161020A4A136A23
:101080000B43136213680B43136001682143016033
:1010900010BDC0466C20000000110040FEFFECFFB8
:1010A000F8FFE0E0801100402810004010B517481C
:1010B0008521016001225305154C2360872343607D
:1010C00092052260016043600146503981220A6026
:1010D000014654390A6001463C390A6001464C39E0
:1010E0000A60014648390A600A490A608F49C160AE
:1010F00001464439084A0A60014640390A603838D6
:101100000260F84806490160016410BDB8804240A1
:10111000D0120A40E480424081000C0090320A4024
:10112000004F0004B0B582B0144C15492046FFF7BB
:101130004BFD14492046FFF79DFC002500950C232C
:10114000204629462A46FFF72BFD204629462A46F7
:10115000FFF718FD0520C10120462A46FFF72CFDA8
:1011600009480A4901600A4801218160094A136857
:101170000B431360016002B0B0BDC0460000864062
:101180007420000078200000A41886401000100091
:1011900000118640281086400D4800210160032080
:1011A000C1430C48021F13680B40136041680122C1
:1011B00091434160110242688A43426001683022D3
:1011C0009143016001680F22914301607047C0465E
:1011D00008030B4004010B407047000080B500F08D
:1011E00011F8FFF763FFFFF7D7FFFFF79BFFFFF74C
:1011F00029FFFFF7F1FFB820014900220A5480BD02
:10120000DC00202010B5094809494160094A5160B5
:10121000094B5960094C616009490160116019600E
:1012200021601020FFF720FC10BDC04600080A40D6
:10123000030000B100280A40000886400008004072
:1012400001000026014800687047C0462010864013
:10125000B0B5542400250555074CC464416285622D
:10126000C5622749054C8461C1610561C560049967
:1012700081600CC0B0BDC046CDCCCC3D000020414B
:10128000F0B581B01E460F460446406A114600F094
:1012900064FC00280BD1E56C1749284600F068FC77
:1012A000002821D11549284600F082FCE064542032
:1012B000012121540025E5623846314600F06AFDDF
:1012C0000146204600F0DCFA07460D4E314600F09C
:1012D00044FC002800D13E463046294600F055FC2B
:1012E000002805D1354603E0542003212154002570
:1012F000E564284601B0F0BD0AD7A33C0AD7A3BCD9
:101300003333B33E0848094901604160C160084871
:10131000016A084A114301620168114301600648ED
:10132000022101607047C0467480424081000E0077
:1013300028300A4000B0200000E100E0F0B581B0A4
:1013400001273E02009040B2002803D465480661A0
:10135000066402E063480660066578252846FFF7C4
:1013600083FB7F025F4C27602846FFF77DFB2761E8
:101370002846FFF779FB0098400603D459480661D8
:10138000066402E057480660066578252846FFF7A0
:101390006BFB544C27602846FFF766FB2761284605
:1013A000FFF762FB0098800603D44E48066106648E
:1013B00002E04C480660066578252846FFF754FB96
:1013C000484C27602846FFF74FFB27612846FFF768
:1013D0004BFB0098C00603D442480661066402E055
:1013E00040480660066578252846FFF73DFB3D4CE2
:1013F00027602846FFF738FB27612846FFF734FBB4
:101400000098000703D437480661066402E03548B7
:101410000660066578252846FFF726FB314C2760D5
:101420002846FFF721FB27612846FFF71DFB0098A0
:10143000400703D42B480661066402E02948066091
:10144000066578252846FFF70FFB264C27602846BF
:10145000FFF70AFB27612846FFF706FB0098800785
:1014600003D420480661066402E01E480660066553
:1014700078252846FFF7F8FA1A4C27602846FFF728
:10148000F3FA27612846FFF7EFFA0098C00703D167
:10149000F9480661066402E0F748066006657824AC
:1014A0002046FFF7E1FAF44D2F602046FFF7DCFA03
:1014B0002F612046FFF7D8FA2E602E652046FFF7F1
:1014C000D3FA2F602046FFF7CFFA07480568EA48AD
:1014D00007612046FFF7C8FA35406842684101B00D
:1014E000F0BDC04690320A4080330A4088B0FFF712
:1014F00075FE9048002606604660FFF703FF8E48A1
:10150000102505600124A10401608C48056001607C
:101510008B48001F0168214301608A488A490160A5
:101520008A49086820430860894820213246FFF72D
:1015300043FBFFF777FC3046FFF766FC009685A279
:10154000874F304631463B46FFF73EFC009685A26A
:10155000304629463B46FFF737FC00961C2183A204
:1015600030463B46FFF730FC0096282181A23046EA
:101570003B46FFF729FC0096342180A207963046AF
:101580003B46FFF721FC7F4800903F2002067E4843
:101590007E497F4B0392FFF75BFE0294200204908A
:1015A000814F7C4800687C49FEF798FF7B4900F03A
:1015B00099FBFFF743F804467D20C50020462946E5
:1015C00000F0C5F903464543601B75490C68754931
:1015D00009680691396805910090182673480746F6
:1015E000314673A2FEF7E4FD079800902A251021EA
:1015F00028463A465A4BFFF7E7FB20467049FEF76C
:101600006DFF664C214600F06DFBFFF717F80346AF
:10161000384631466BA2FEF7CBFD079800901C219F
:1016200028463A464E4BFFF7CFFB0598214600F07F
:1016300059FBFFF703F804460A27394600F087F9FB
:1016400003464743E01B0090584F38463146079CFD
:101650005FA2FEF7ADFD0094282128463A46404B94
:10166000FFF7B2FB5E480057032803D880005EA155
:101670000B5800E05BA318244C4F384621465EA26D
:10168000FEF796FD079E00962A20342529463A4605
:10169000334BFFF799FB454F3846214657A2069B2F
:1016A000FEF786FD0096522029463A462C4BFFF75E
:1016B0008BFBFFF76DFC224800680499084204D1B7
:1016C0001F490868049A104308604D4E307800287E
:1016D0002D4D354F1DD02F4800682F49FEF7FEFED7
:1016E00004462F4800683649FEF7F8FE03462846B0
:1016F00003992246FFF7C4FD3860424900F0F2FA30
:10170000FEF79CFF01461248079C2246FFF754FA59
:1017100034705420285C0328314900D041E702206E
:10172000087007983860094A106802998843106069
:1017300037E7C046B080424080E200E000E100E0D0
:1017400004110040000800400100002604188640F3
:1017500000008640424D532042415349430000005F
:10176000FFFF0000564241543A00000049434847F9
:101770003A000000445554593A0000005354415473
:101780003A00000017B7D138640020206666864012
:10179000CDCCCC3D980120200AD7233E00007A44CE
:1017A000D800202060002020A0012020BC002020A4
:1017B000256C752E2530336C7556202020000000D6
:1017C000CDCC0C4025756D4120202020000000006C
:1017D000256C752E256C7525252020202000000005
:1017E000A80520203F000000802000008A20000083
:1017F000852000008E200000257300002575000064
:10180000D400202000002044F0B583B002900120D5
:101810000602194F3E603E6545023D60174800785C
:10182000019078242046FFF71FF93E613E64204670
:10183000FFF71AF93D612046FFF716F901980028D5
:1018400001D1204600E07A20FFF778FD0020FFF765
:1018500075FD0298FFF772FD3E613E642046FFF77A
:1018600003F93D602046FFF7FFF83E603E652046E5
:10187000FFF7FAF803B0F0BD90320A40A40120202F
:10188000F0B585B004464068049100F02BFA064696
:10189000E060A769394600F060F9039000283D46F2
:1018A00000D135460120C0070190474028463946FF
:1018B00000F06BF900283E4600D12E460398002820
:1018C00005D12846394600F03DF9002800D1E660F0
:1018D000256960690390049F276165613846294640
:1018E00000F058FA0146206800F0FCF9029606461E
:1018F0002846294600F05CF90146384600F04AFACD
:10190000039900F055F90146A06800F0EBF905468F
:101910003046029900F04CF9294600F049F9216A55
:1019200000F046F906462062E569294600F015F9FF
:10193000002807D1019845403046294600F002F9B9
:10194000002801D125622E46304605B0F0BD43087F
:101950008B421AD3002203098B4279D3030A8B42AC
:101960005ED3030B8B4242D3030C8B4227D3090275
:10197000FF2212BA030C8B4202D31212090203D0C7
:10198000030B8B4233D31AE0D3E0411A8041401C51
:10199000704703460B4371D443088B42F5D30022B2
:1019A00003098B4254D3030A8B4239D3030B8B4276
:1019B0001DD3030C8B4202D394466EE0090AC30B7D
:1019C0008B4201D3CB03C01A5241830B8B4201D30C
:1019D0008B03C01A5241430B8B4201D34B03C01AF5
:1019E0005241030B8B4201D30B03C01A5241C30A6D
:1019F0008B4201D3CB02C01A5241830A8B4201D3DE
:101A00008B02C01A5241430A8B4201D34B02C01AC7
:101A10005241030A8B4201D30B02C01A5241CDD26C
:101A2000C3098B4201D3CB01C01A524183098B42B7
:101A300001D38B01C01A524143098B4201D34B01A0
:101A4000C01A524103098B4201D30B01C01A524103
:101A5000C3088B4201D3CB00C01A524183088B428A
:101A600001D38B00C01A524143088B4201D34B0073
:101A7000C01A5241411A524110007047CA0F00D09B
:101A80004942031000D34042534000229C460309C0
:101A90008B422DD3030A8B4212D38901FC2212BA46
:101AA000030A8B420CD3890192118B4208D389011E
:101AB00092118B4204D3890137D0921100E0890939
:101AC000C3098B4201D3CB01C01A524183098B4217
:101AD00001D38B01C01A524143098B4201D34B0100
:101AE000C01A524103098B4201D30B01C01A524163
:101AF000C3088B4201D3CB00C01A524183088B42EA
:101B000001D38B00C01A5241D9D243088B4201D372
:101B10004B00C01A5241411A00D2014652411046B0
:101B200063465B1000D34042704763465B1000D3AE
:101B3000404201B50021004201D0C9430846C046D9
:101B4000C04602BD10B500F079F8EFF300808000C8
:101B500001D5012010BD002010BD10B500F06EF8B9
:101B6000EFF300804000800F012800D0002010BD5E
:101B700010B500F08DF8EFF300804000800F0128D1
:101B800001D0012010BD002010BD10B500F080F87C
:101B9000EFF30080800001D4012010BD002010BDB3
:101BA00030380A2801D20120704700207047000019
:101BB00070B50125ED0704004C4020D4441A01D231
:101BC000001B0919C60D4B00F2B2FF2A29D01B0ECB
:101BD0002CD000020C0228432C43D31ADC400519F8
:101BE00010D2280A02D3401C6D0611D0761EF605CD
:101BF0008019FF2A00DA70BDC00DC00570BD6940B4
:101C000000F0CEF801200543C541521C761CE8E7E0
:101C100064089C40C90161408900E7D10124A043C8
:101C2000E4E71B0E440200D0034870BD002AFCD13B
:101C3000C00FC00770BD00BF0000C07F0123DB05DF
:101C400002000A430DD4DA4203D49A4207D48842F0
:101C50007047D84214D4D94212D488427047804287
:101C60007047DA4203D59A42F9D5814270475B004A
:101C70004200DA4204D24A00DA4201D2814270477D
:101C800010B5024AFEF7C6FD10BD00BF09001304DF
:101C90000123DB0502000A430DD4DA4203D49A4241
:101CA00007D488427047D84214D4D94212D488420B
:101CB000704780427047DA4203D59A42F9D5814293
:101CC00070475B004200DA4204D24A00DA4201D295
:101CD0008142704710B5024AFEF79CFD10BD00BF5F
:101CE0000900160470B5420064414B005C41120EBD
:101CF00039D01B0E38D0FF2A3CD0FF2B3AD0D21857
:101D00007F3A40024902400A490A4518ED0106009F
:101D10004E43000A090A48430104731A4019190C7A
:101D20004318990F04D05B08012149075B1A521C24
:101D3000D80904D3401CF50301D19D0607D0FF2A22
:101D400008D2D50506D0E4072043401970BD01250F
:101D5000A843F4E7002A01DCE00770BD2402FF205D
:101D60002043C00570BD1B0EFF2A03D0FF2B01D0FE
:101D7000E00770BDFF2636064500B54206D84D0087
:101D8000B54203D8D218FF2A00D0E7E7004870BD5B
:101D90000000C07F70B50125ED0704004C4022D43F
:101DA000441A02D26C40001B0919C60D4B00F2B256
:101DB000FF2A4BD01B0E50D000020C02A8432C432C
:101DC000D31ADC40051B05D5AD0019D36D08761E6E
:101DD000521E37D0F605280A01D2801970BD704115
:101DE0006D0603D070BD6940FFF7E8FE9C40090214
:101DF0006140490001D0401E70BD0124A04370BD68
:101E00006D081DD001202B0C01D12D0410302B0E9C
:101E100001D12D0208302B0F01D12D01001DAB0F78
:101E200001D1AD00801CEB0F01D16D00401C361AB2
:101E3000121A6D00680AF5054019012A02DB70BD0F
:101E4000002070BDC036300AC00770BD1B0E4402B2
:101E500001D1FF2B00D1024870BD002AF0D070BD27
:101E60000000C07F04000008000000000000000225
:101E700000010000108182838485868788898B8C8D
:101E80008D8E8F919293959697999A9C9D9FA0A2E3
:101E9000A3A5A7A8AAACAEB0B2B3B5B7B9BCBEC033
:101EA000C2C5C7C9CCCED1D4D7D9DCDFE2E6E9ECD4
:101EB000F0F3F7FAFE000000172000006220000097
:101EC0006220000062200000622000005D2000000F
:101ED00062200000622000006220000062200000FA
:101EE0006220000062200000622000002620000026
:101EF0002120000067200000622000006220000016
:101F000062200000622000006220000062200000C9
:101F100062200000622000006220000062200000B9
:101F20001C200000622000006220000062200000EF
:101F3000622000006220000062200000A41F000058
:101F4000A91F0000AE1F0000B31F0000B81F000053
:101F5000BD1F0000C21F0000C71F0000CC1F0000F3
:101F60009420000099200000D11F0000D61F00001F
:101F7000DB1F0000E01F0000E51F0000E51F000060
:101F8000EA1F0000EF1F0000F41F0000F91F00000F
:101F9000FE1F000003200000082000000D200000AC
:101FA000122000007E1111117E7F494949363E41C1
:101FB0004141227F4141221C7F494949417F090912
:101FC00009013E4149497A7F0808087F00417F4165
:101FD000007F404040407F020C027F7F0408107F5A
:101FE0003E4141413E7F090909067F0919294646BC
:101FF0004949493101017F01013F4040403F1F20D5
:1020000040201F4949493628121408141207087045
:1020100008071E0204081E000000000000363600FB
:1020200000006060000008080808083E5149453E6D
:1020300000427F400042615149462141454B3118E1
:1020400014127F1027454545393C4A4949300171F2
:102050000905033649494936064949291E6264087B
:102060001323020151090620100804020105000093
:1020700000000000080000008002000000010000D5
:1020800049444C4500444F4E4500434847004641B3
:10209000554C54000281FE8000FF20508F0000004C
:1020A000B020000000002020B00600002801000041
:04000005000000C136
:00000001FF
