:020000040000FA
:10000000800220206D0100007101000073010000DA
:1000100000000000000000000000000000000000E0
:10002000000000000000000000000000750100005A
:1000300000000000000000007701000079010000CE
:100040007B0100007B0100007B0100007B010000C0
:10005000F90400007B0100007B0100007B0100002F
:10006000000000007B0100007B0100000000000098
:10007000000000007B0100007B0100007B0100000C
:100080007B0100007B0100000D0900007B010000E6
:100090007B0100007B010000000000000000000068
:1000A0007B0100007B010000000000000000000058
:1000B0007B010000000000007B0100007B010000CC
:1000C00000F002F800F042F812A030C808382418F6
:1000D0002D18AC4201D100F039F80FCCA246AB4646
:1000E0000CA730CF2D1B083F3F197C427F1E544484
:1000F0002D090426F441641EAC4201D300F026F819
:100100000126334200D0FB1A3343984754465D46DC
:10011000DFE70000040D0000140D000000000000E7
:100120007047000000000000002300240025002686
:10013000103A01D378C1FBD8520700D330C100D5A3
:100140000B6070471FB51FBD10B510BD00F052F910
:100150001146FFF7F7FF00F047FC00F06AF903B41F
:10016000FFF7F2FF03BC00F0BFF9000006480047AC
:10017000FEE7FEE7FEE7FEE7FEE7FEE70348044989
:10018000024A044B70470000C1000000800120209B
:1001900080022020800120207047704770470000B7
:1001A000F0B5FF252D04C609C209FF2704462E40DD
:1001B0000137CB093E4348402A402B400746002ADE
:1001C0006BD0002B69D0AA4267D0AB4265D0002823
:1001D00000DA32460125ED0529432C4309022002AD
:1001E000090AD21A4B0C7F24E31A434C000A7C44C0
:1001F000E35C7D242404121914145B00A2188842C5
:1002000001D3521C00E0400049420C465C432411DB
:100210005C43DB016415E318040A5C43C502200D4E
:100220000C4644436419250A5D432303EC0C0D4638
:10023000654300030019EB184C42A34201D35B183D
:10024000401CD4052018002B07D05B00C91804D32C
:10025000401C002901D1400840003F2189048A4206
:1002600009D3002A08DC1106090F04D0032149072D
:100270004018C00FC007F0BD0122410012068918C6
:100280007F2252069142F6D205214907C84201D584
:100290009010F0BDFF20C005F0BD002F00DA3246FF
:1002A0001648AA4207D2AB4205D21902090E17D04E
:1002B000F80FC007F0BDFF2563002D06AB42F9D84B
:1002C0004900A942F6D8AB4201D1A942F2D0A942D5
:1002D00001D1002101E061004908D0050843F0BDCB
:1002E0001102090EFBD0FF200243D005F0BD0A46E3
:1002F0000146104654E70000D20B00000000C07F0A
:100300000102C21504D00123DB071943002A0ADBCE
:100310009E239A1A02D40846D0407047FF2241001B
:100320001206914201D900207047C017C0437047A0
:100330001F22030C02D10F2200041CD0030E01D196
:100340000002083A030F01D10001121F830F01D1EF
:100350008000921E002801DB4000521ED205511879
:10036000021251181922904004D3491C002801D1CF
:100370004908490008467047C10FC90700D04042EC
:10038000012292071143D3E701218907D0E700003A
:1003900010B5FF231B0644009C421DD84C009C4214
:1003A0001AD80346124A0B4307D4401A02D3EFF37C
:1003B000008010BDEFF3008010BD081A03D3EFF3E7
:1003C0000080904305E0EFF3008001219043C907CE
:1003D000084380F3008810BD0D231B041A4204D08B
:1003E0001146002000F02DF810BD00F041F810BDBE
:1003F00000000090754600F043F8AE4605006946DF
:100400005346C008C000854618B020B5FFF7B6FEB9
:1004100060BCB64600260027C0C5C0C5C0C5C0C563
:10042000C0C5C0C5C0C5C0C5403D490849008D46CE
:10043000704710B50446C046C0462046FFF78FFE01
:1004400010BDC80212D54803400F002804D0C803CD
:10045000C043012188407047EFF30080000100098C
:1004600003210907084380F3008870470020704784
:1004700010B5024800F008F810BD00000000C07F71
:10048000004870470000202010B50C461107090FE6
:10049000092904D00A290AD008290CD104E0114600
:1004A0000820FFF7CEFF06E0510606D501E0510611
:1004B00001D50120C007214610BDD10607D5010195
:1004C0000909CC084907000E0006044309E0410F62
:1004D00020024907000A0143200E00061D22D141D7
:1004E00001430846E7E7000001491820ABBEFEE7DC
:1004F000260002007047000070B512480068C0B2C4
:100500000A281ED1104E306880B2FFF73DFF0F4C15
:10051000214600F097FB7321CD05294600F092FBA0
:1005200071680B4A106088B2FFF72EFF214600F079
:1005300089FB294600F086FB064908600648012130
:10054000017070BD2010004080625540333353402D
:1005500078012020B8002020B4002020B0B50A780F
:10056000032313400B4A84580B4D2540EB18A92454
:1005700024061B198350072212064B6813401124CE
:10058000240205599543EA1802510019497801617E
:10059000B0BDC04608080000FCFFFF00811E091F17
:1005A00000BFFCD270470000F0B53C4A82183C4BBB
:1005B000C31808794E793B4D3B4C002E23D02028A0
:1005C00004D00526F601002803D003E0374E0028AA
:1005D00000D18826576F2F4037435767976F2F40BA
:1005E00037439767566B26405663966B2640966353
:1005F0000026566596658F26F6435F6837405F6034
:100600009F6837409F608E79096820280BD00028AA
:1006100019D1491E5160D76E2F4088210F43D766EC
:100620001746703719E0491E5160D16E29401F4F9F
:100630003943D166116F29403943116701214907B8
:100640001B4D174609E049085160D76E2F40052120
:10065000C9010F43D766174670373C682C400C43DE
:100660003C60D16A104C2140D162116B2140116372
:100670000021D16411658F21C943D46F0C40D46728
:100680001C680C401C600643BD2030401168094BBB
:100690000B40C018801C1060F0BDC046041800005C
:1006A0008418000024493E008888FDFF01040000F2
:1006B000FFFFFFCF4000FFCF10B507239B04194079
:1006C00092008018024A84589C436118815010BDE2
:1006D0003018000010B5029CA40000191143194302
:1006E000014A815010BDC046501800009200801889
:1006F000014A81507047C0461018000010B5012211
:10070000120383180C789C604B7883508978014AD7
:10071000815010BD0C11000010B50124A007104934
:10072000FFF71CFF0F4841680F4A0A402104511887
:10073000416081680D4A0A402106511881600C49C8
:1007400000220A604C6061020A4A136A0B4313627A
:1007500013680B43136001682143016010BDC0465C
:10076000040E000000110040FEFFECFFF8FFE0E087
:10077000801100402810004010B517488521016005
:1007800001225305154C23608723436092052260A4
:10079000016043600146503981220A6001465439A4
:1007A0000A6001463C390A6001464C390A6001463C
:1007B00048390A600A490A600A49C1600246443A57
:1007C00011600246403A1160383801600648074916
:1007D0000160016410BDC046B8804240D0120A409A
:1007E000E480424081000C0090320A40004F000437
:1007F000B0B582B0844C14492046FFF77FFF1349FF
:100800002046FFF7D1FE002500950C2320462946FF
:100810002A46FFF75FFF204629462A46FFF74CFF8E
:100820000520C10120462A46FFF760FF0848094914
:100830000160094801218160084A13680B43136075
:10084000016002B0B0BDC0460C0E0000100E0000EA
:10085000A418864010001000001186402810864021
:100860000D48002101600320C1430C48021F13689A
:100870000B401360416801229143416011024268BC
:100880008A434260016830229143016001680F226F
:10089000914301607047C04608030B4004010B40C0
:1008A0007047000080B500F011F8FFF765FFFFF713
:1008B000D7FFFFF79DFFFFF72FFFFFF7F1FFB820EE
:1008C000014900220A5480BDBC00202010B509480F
:1008D00009494160094A5160094B5960094C6160FE
:1008E000094901601160196021601020FFF756FE70
:1008F00010BDC04600080A40030000B100280A40AD
:10090000000886400008004001000026B0B51248EB
:100910000068C0B201281ED1012000020F490A68F8
:1009200002430A600E4D2878002814D00D48026852
:100930000D4803683F2001060C4800F01BF80C49E5
:1009400000F080F9FFF7DCFC01462F480024224626
:10095000FFF7CCFE2C70B0BD201086400411004083
:10096000B400202078012020B80020206000202042
:100970000000204470B51E460D4604461649104638
:10098000FFF70EFCA062616A00F0B7F800281CD0E7
:1009900013493046FFF704FC0146284600F0B8F83A
:1009A0000146204600F032F806460E4D294600F07A
:1009B00099F8002800D1354600262846314600F037
:1009C0009CF8002804D12E4602E00448E06200268C
:1009D000E664304670BDC0460AD89F3C00C07944EA
:1009E000CDCCCCBE3333733FFFF75CFF05480168C5
:1009F00001220A4302600520C10103480022FFF7DB
:100A000075FEFEE70418864000008640F0B585B00C
:100A100004464068049100F015F90646E060A769B5
:100A2000394600F05FF8039000283D4600D1354676
:100A30000120C007009047402846394600F05DF885
:100A400000283E4600D12E460398002805D12846AE
:100A5000394600F03CF8002800D1E6600396E669CC
:100A60000021304600F033F8276961690191A168DF
:100A700002912568002802D100984640E661049E54
:100A8000266167613046394600F034F90146284650
:100A900000F0D8F8039900F03BF80546384639468F
:100AA00000F036F80146304600F024F9019900F0D4
:100AB0002FF80146029800F0C5F80146284600F0DC
:100AC00027F8216A00F024F8206205B0F0BD10B5C7
:100AD00000F064F8EFF30080800001D5012010BD24
:100AE000002010BD10B500F059F8EFF30080400071
:100AF000800F012800D0002010BD10B500F078F85C
:100B0000EFF30080800001D4012010BD002010BD53
:100B100070B50125ED0704004C4020D4441A01D2E1
:100B2000001B0919C60D4B00F2B2FF2A29D01B0E7B
:100B30002CD000020C0228432C43D31ADC400519A8
:100B400010D2280A02D3401C6D0611D0761EF6057D
:100B50008019FF2A00DA70BDC00DC00570BD694064
:100B600000F0CEF801200543C541521C761CE8E791
:100B700064089C40C90161408900E7D10124A04379
:100B8000E4E71B0E440200D0034870BD002AFCD1EC
:100B9000C00FC00770BD00BF0000C07F0123DB0590
:100BA00002000A430DD4DA4203D49A4207D48842A1
:100BB0007047D84214D4D94212D488427047804238
:100BC0007047DA4203D59A42F9D5814270475B00FB
:100BD0004200DA4204D24A00DA4201D2814270472E
:100BE00010B5024AFFF7D4FB10BD00BF0900130483
:100BF0000123DB0502000A430DD4DA4203D49A42F2
:100C000007D488427047D84214D4D94212D48842BB
:100C1000704780427047DA4203D59A42F9D5814243
:100C200070475B004200DA4204D24A00DA4201D245
:100C30008142704710B5024AFFF7AAFB10BD00BF02
:100C40000900160470B5420064414B005C41120E6D
:100C500039D01B0E38D0FF2A3CD0FF2B3AD0D21807
:100C60007F3A40024902400A490A4518ED01060050
:100C70004E43000A090A48430104731A4019190C2B
:100C80004318990F04D05B08012149075B1A521CD5
:100C9000D80904D3401CF50301D19D0607D0FF2AD3
:100CA00008D2D50506D0E4072043401970BD0125C0
:100CB000A843F4E7002A01DCE00770BD2402FF200E
:100CC0002043C00570BD1B0EFF2A03D0FF2B01D0AF
:100CD000E00770BDFF2636064500B54206D84D0038
:100CE000B54203D8D218FF2A00D0E7E7004870BD0C
:100CF0000000C07F70B50125ED0704004C4022D4F0
:100D0000441A02D26C40001B0919C60D4B00F2B206
:100D1000FF2A4BD01B0E50D000020C02A8432C43DC
:100D2000D31ADC40051B05D5AD0019D36D08761E1E
:100D3000521E37D0F605280A01D2801970BD7041C5
:100D40006D0603D070BD6940FFF7E8FE9C400902C4
:100D50006140490001D0401E70BD0124A04370BD18
:100D60006D081DD001202B0C01D12D0410302B0E4D
:100D700001D12D0208302B0F01D12D01001DAB0F29
:100D800001D1AD00801CEB0F01D16D00401C361A63
:100D9000121A6D00680AF5054019012A02DB70BDC0
:100DA000002070BDC036300AC00770BD1B0E440263
:100DB00001D1FF2B00D1024870BD002AF0D070BDD8
:100DC0000000C07F8182838485868788898B8C8D93
:100DD0008E8F919293959697999A9C9D9FA0A2A38E
:100DE000A5A7A8AAACAEB0B2B3B5B7B9BCBEC0C2D5
:100DF000C5C7C9CCCED1D4D7D9DCDFE2E6E9ECF067
:100E0000F3F7FAFE010500000000000008000000F2
:100E10008002000000010000280E000000002020D9
:080E200080020000280100001F
:04000005000000C136
:00000001FF
