:020000040000FA
:10000000800620206D0100007101000073010000D6
:1000100000000000000000000000000000000000E0
:10002000000000000000000000000000750100005A
:1000300000000000000000007701000079010000CE
:100040007B0100007B0100007B0100007B010000C0
:10005000F90400007B0100007B0100007B0100002F
:10006000000000007B0100007B0100000000000098
:10007000000000007B0100007B0100007B0100000C
:100080007B0100007B0100003D0B00007B010000B4
:100090007B0100007B010000000000000000000068
:1000A0007B0100007B010000000000000000000058
:1000B0007B010000000000007B0100007B010000CC
:1000C00000F002F800F042F812A030C808382418F6
:1000D0002D18AC4201D100F039F80FCCA246AB4646
:1000E0000CA730CF2D1B083F3F197C427F1E544484
:1000F0002D090426F441641EAC4201D300F026F819
:100100000126334200D0FB1A3343984754465D46DC
:10011000DFE70000EC130000FC130000000000000B
:100120007047000000000000002300240025002686
:10013000103A01D378C1FBD8520700D330C100D5A3
:100140000B6070471FB51FBD10B510BD00F052F910
:100150001146FFF7F7FF00F011FE00F06AF903B453
:10016000FFF7F2FF03BC00F0BFF9000006480047AC
:10017000FEE7FEE7FEE7FEE7FEE7FEE70348044989
:10018000024A044B70470000C10000008005202097
:1001900080062020800520207047704770470000AF
:1001A000F0B5FF252D04C609C209FF2704462E40DD
:1001B0000137CB093E4348402A402B400746002ADE
:1001C0006BD0002B69D0AA4267D0AB4265D0002823
:1001D00000DA32460125ED0529432C4309022002AD
:1001E000090AD21A4B0C7F24E31A434C000A7C44C0
:1001F000E35C7D242404121914145B00A2188842C5
:1002000001D3521C00E0400049420C465C432411DB
:100210005C43DB016415E318040A5C43C502200D4E
:100220000C4644436419250A5D432303EC0C0D4638
:10023000654300030019EB184C42A34201D35B183D
:10024000401CD4052018002B07D05B00C91804D32C
:10025000401C002901D1400840003F2189048A4206
:1002600009D3002A08DC1106090F04D0032149072D
:100270004018C00FC007F0BD0122410012068918C6
:100280007F2252069142F6D205214907C84201D584
:100290009010F0BDFF20C005F0BD002F00DA3246FF
:1002A0001648AA4207D2AB4205D21902090E17D04E
:1002B000F80FC007F0BDFF2563002D06AB42F9D84B
:1002C0004900A942F6D8AB4201D1A942F2D0A942D5
:1002D00001D1002101E061004908D0050843F0BDCB
:1002E0001102090EFBD0FF200243D005F0BD0A46E3
:1002F0000146104654E70000F61000000000C07FE1
:100300000102C21504D00123DB071943002A0ADBCE
:100310009E239A1A02D40846D0407047FF2241001B
:100320001206914201D900207047C017C0437047A0
:100330001F22030C02D10F2200041CD0030E01D196
:100340000002083A030F01D10001121F830F01D1EF
:100350008000921E002801DB4000521ED205511879
:10036000021251181922904004D3491C002801D1CF
:100370004908490008467047C10FC90700D04042EC
:10038000012292071143D3E701218907D0E700003A
:1003900010B5FF231B0644009C421DD84C009C4214
:1003A0001AD80346124A0B4307D4401A02D3EFF37C
:1003B000008010BDEFF3008010BD081A03D3EFF3E7
:1003C0000080904305E0EFF3008001219043C907CE
:1003D000084380F3008810BD0D231B041A4204D08B
:1003E0001146002000F02DF810BD00F041F810BDBE
:1003F00000000090754600F043F8AE4605006946DF
:100400005346C008C000854618B020B5FFF7B6FEB9
:1004100060BCB64600260027C0C5C0C5C0C5C0C563
:10042000C0C5C0C5C0C5C0C5403D490849008D46CE
:10043000704710B50446C046C0462046FFF78FFE01
:1004400010BDC80212D54803400F002804D0C803CD
:10045000C043012188407047EFF30080000100098C
:1004600003210907084380F3008870470020704784
:1004700010B5024800F008F810BD00000000C07F71
:10048000004870470000202010B50C461107090FE6
:10049000092904D00A290AD008290CD104E0114600
:1004A0000820FFF7CEFF06E0510606D501E0510611
:1004B00001D50120C007214610BDD10607D5010195
:1004C0000909CC084907000E0006044309E0410F62
:1004D00020024907000A0143200E00061D22D141D7
:1004E00001430846E7E7000001491820ABBEFEE7DC
:1004F0002600020070470000014800687047C046AF
:1005000020100040B0B50A78032313400B4A8458EA
:100510000B4D2540EB18A92424061B1983500722F4
:1005200012064B6813401124240205599543EA181A
:100530000251001949780161B0BDC04608080000A9
:10054000FCFFFF00811E091F00BFFCD270470000A6
:10055000F0B53C4A82183C4BC31808794E793B4DA4
:100560003B4C002E23D0202804D00526F60100287D
:1005700003D003E0374E002800D18826576F2F4064
:1005800037435767976F2F4037439767566B26401F
:100590005663966B264096630026566596658F26B1
:1005A000F6435F6837405F609F6837409F608E7991
:1005B000096820280BD0002819D1491E5160D76E38
:1005C0002F4088210F43D7661746703719E0491E20
:1005D0005160D16E29401F4F3943D166116F2940B8
:1005E00039431167012149071B4D174609E04908A6
:1005F0005160D76E2F400521C9010F43D7661746BA
:1006000070373C682C400C433C60D16A104C214050
:10061000D162116B214011630021D16411658F21DA
:10062000C943D46F0C40D4671C680C401C6006435F
:10063000BD2030401168094B0B40C018801C106071
:10064000F0BDC046041800008418000024493E0094
:100650008888FDFF01040000FFFFFFCF4000FFCFAF
:1006600010B507239B04194092008018024A845851
:100670009C436118815010BD3018000010B5029CD9
:10068000A400001911431943014A815010BDC0460E
:100690005018000092008018014A81507047C046EF
:1006A0001018000010B50122120383180C789C600A
:1006B0004B7883508978014A815010BD0C1100009D
:1006C000F0B588B00493029010463038C0B20928C3
:1006D00005D8052050435C4A8018F0380FE01046DA
:1006E0006138C0B21A2800D2203A203AD0B23A2853
:1006F00004D850B28000534A105800E0504800908F
:100700000D980690FF20C001059000263246019604
:1007100005E0039A521C062A019E00D18DE0052AAD
:10072000079602D00098805C0790029803921018F8
:1007300006E0814DAB5CA343AB54361D082EE8D0D8
:1007400084B27F2C1CD873189DB23F2D18D8079DFA
:10075000F540ED07069F00D0049F07221A400125AF
:1007600095401A01059B1A4013189AB2002F03D026
:10077000714FBB5C2B4302E06F4FBB5CAB43BB5480
:100780007F2C1DD8751C6B189AB23F2A18D8079A6F
:10079000EA40D207069F00D0049F07221A40012595
:1007A00095401A01059B1A4013189AB2002F03D0E6
:1007B000614FBB5C2B4302E05F4FBB5CAB43BB5460
:1007C0007F2C1DD8B51C6B189AB23F2A18D8079AEF
:1007D000EA40D207069F00D0049F07221A40012555
:1007E00095401A01059B1A4013189AB2002F03D0A6
:1007F000514FBB5C2B4302E04F4FBB5CAB43BB5440
:100800007F2C9AD8F41C63189AB23F2A95D8079A7D
:10081000E240D207069D00D0049D07221A40012421
:1008200094401A01059B1A4013189AB2002D00D16A
:100830007FE7414DAB5C23437EE708B0F0BDC04687
:10084000E114000028130000AA140000F0B583B0E2
:100850000293019106461078002812D07F2E10D8FE
:10086000089C551C0094B7B2C2B238460199029B4D
:10087000FFF726FF2878002803D06D1CB61D7A2FBD
:10088000F0D300F003F803B0F0BD0000F0B585B080
:100890000120060245020020274C5E4F02A961C1DB
:1008A00001905038C0B200F007FB029800F004FB42
:1008B000102000F001FB3E603E653D607825284633
:1008C000FFF740FE3E613E642846FFF73BFE03987B
:1008D00038612846FFF736FE18480078002800D017
:1008E0007A25049E284600F071F9402000F06EF948
:1008F000029D605D00F06AF96D1C802DF9D1454FB5
:100900003E613E6478252846FFF71CFE039E3E604C
:100910002846FFF717FE0498386004983865284683
:100920003546049EFFF70EFE80340198401C0828CF
:10093000B6D105B0F0BDC046800120207C0120204A
:1009400010B50124A0071049FFF7DCFD0F484168EE
:100950000F4A0A4021045118416081680D4A0A403B
:100960002106511881600C4900220A604C60610226
:100970000A4A136A0B43136213680B43136001683E
:100980002143016010BDC046EC140000001100407E
:10099000FEFFECFFF8FFE0E080110040281000406F
:1009A00010B517488521016001225305154C2360BD
:1009B00087234360920522600160436001465039FD
:1009C00081220A60014654390A6001463C390A60B6
:1009D00001464C390A60014648390A600A490A60F2
:1009E0000A49C16001464439094A0A600146403952
:1009F0000A6038380260DF4807490160016410BDB1
:100A0000B8804240D0120A40E480424081000E008B
:100A100081000C0090320A40004F0004B0B582B053
:100A2000144C15492046FFF73DFE14492046FFF7B8
:100A30008FFD002500950C23204629462A46FFF706
:100A40001DFE204629462A46FFF70AFE0520C10161
:100A500020462A46FFF71EFE09480A4901600A4857
:100A600001218160094A13680B431360016002B0E1
:100A7000B0BDC04600008640F4140000F814000029
:100A8000A4188640100010000011864028108640EF
:100A90000D48002101600320C1430C48021F136868
:100AA0000B4013604168012291434160110242688A
:100AB0008A434260016830229143016001680F223D
:100AC000914301607047C04608030B4004010B408E
:100AD0007047000080B500F011F8FFF761FFFFF7E5
:100AE000D7FFFFF79BFFFFF72BFFFFF7F1FFB820C2
:100AF000014900220A5480BDBC00202010B50948DD
:100B000009494160094A5160094B5960094C6160CB
:100B1000094901601160196021601020FFF712FD82
:100B200010BDC04600080A40030000B100280A407A
:100B300000088640000800400100002605480068C3
:100B4000C0B2012805D101200002CC490A68024345
:100B50000A6070472010864070B51E460D46044658
:100B600016491046FFF71CFBA062616A00F057FAB5
:100B700000281CD013493046FFF712FB01462846D7
:100B800000F058FA0146204600F0D2F906460E4D14
:100B9000294600F039FA002800D1354600262846BB
:100BA000314600F03CFA002804D12E4602E0044809
:100BB000E0620026E664304670BDC0460AD89F3C1D
:100BC00000C07944CDCCCCBE3333733FF0B581B097
:100BD00001273E02009040B2002803D4D2480661AB
:100BE000066402E0D0480660066578252846FFF7CF
:100BF000A9FC7F02CC4C27602846FFF7A3FC2761A5
:100C00002846FFF79FFC0098400603D4C6480661BB
:100C1000066402E0C4480660066578252846FFF7AA
:100C200091FCC14C27602846FFF78CFC27612846C1
:100C3000FFF788FC0098800603D4BB480661066471
:100C400002E0B9480660066578252846FFF77AFC79
:100C5000B54C27602846FFF775FC27612846FFF74B
:100C600071FC0098C00603D4AF480661066402E038
:100C7000AD480660066578252846FFF763FCAA4C58
:100C800027602846FFF75EFC27612846FFF75AFCDD
:100C90000098000703D4A4480661066402E0A24855
:100CA0000660066578252846FFF74CFC9E4C2760B9
:100CB0002846FFF747FC27612846FFF743FC0098CA
:100CC000400703D498480661066402E0964806602F
:100CD000066578252846FFF735FC934C27602846A3
:100CE000FFF730FC27612846FFF72CFC00988007AF
:100CF00003D48D480661066402E08B4806600665F1
:100D000078252846FFF71EFC874C27602846FFF70A
:100D100019FC27612846FFF715FC0098C00703D18E
:100D200081480661066402E07F4806600665782413
:100D30002046FFF707FC7C4D2F602046FFF702FCA2
:100D40002F612046FFF7FEFB2E602E652046FFF741
:100D5000F9FB2F602046FFF7F5FB0748056872484E
:100D600007612046FFF7EEFB35406842684101B05D
:100D7000F0BDC04690320A4080330A4082B0FFF78F
:100D8000A9FE374801680124214301602102019135
:100D90004031344800252A46FFF77CFC324F386842
:100DA00080B2FFF7F1FA314900F0DEF97321CE0588
:100DB000314600F0D9F979682D4A106088B2FFF702
:100DC000E3FA2A4900F0D0F9314600F0CDF929497B
:100DD0000860294E2A48019F0470284C0095284637
:100DE000294628A23346FFF731FD009510212846F9
:100DF00027A23346FFF72AFD00951C21284626A28C
:100E00003346FFF723FD00952821284624A23346C8
:100E1000FFF71CFD00953421284623A23346FFF737
:100E200015FDFFF733FD2068384320601448007833
:100E30000028D3D00E4802680E4803683F20010600
:100E40001B48FFF789FE1B4900F08EF9FFF758FA9F
:100E5000014604482A46FFF71DFC2C460848BBE71C
:100E6000041886400000864080625540333353406A
:100E700078012020B8002020FFFF0000041100406E
:100E8000B4002020424D532042415349430000000A
:100E9000564241543A000000494348473A00000096
:100EA000445554593A000000535441543A0000004C
:100EB0006000202000002044F0B583B002900120A3
:100EC0000602194F3E603E6545023D6017480078B6
:100ED000019078242046FFF735FB3E613E642046B2
:100EE000FFF730FB3D612046FFF72CFB01980028FF
:100EF00001D1204600E07A20FFF768FE0020FFF7CE
:100F000065FE0298FFF762FE3E613E642046FFF7F1
:100F100019FB3D602046FFF715FB3E603E6520460D
:100F2000FFF710FB03B0F0BD90320A407C01202097
:100F3000F0B585B004464068049100F015F9064606
:100F4000E060A769394600F05FF8039000283D464D
:100F500000D135460120C007009047402846394659
:100F600000F05DF800283E4600D12E460398002888
:100F700005D12846394600F03CF8002800D1E6604B
:100F80000396E6690021304600F033F8276961696D
:100F90000191A16802912568002802D1009846407D
:100FA000E661049E266167613046394600F034F9F7
:100FB0000146284600F0D8F8039900F03BF80546B2
:100FC0003846394600F036F80146304600F024F93C
:100FD000019900F02FF80146029800F0C5F801468B
:100FE000284600F027F8216A00F024F8206205B0B6
:100FF000F0BD10B500F064F8EFF30080800001D57B
:10100000012010BD002010BD10B500F059F8EFF31D
:1010100000804000800F012800D0002010BD10B5D6
:1010200000F078F8EFF30080800001D4012010BDBB
:10103000002010BD70B50125ED0704004C4020D400
:10104000441A01D2001B0919C60D4B00F2B2FF2A47
:1010500029D01B0E2CD000020C0228432C43D31A9B
:10106000DC40051910D2280A02D3401C6D0611D0AD
:10107000761EF6058019FF2A00DA70BDC00DC00586
:1010800070BD694000F0CEF801200543C541521CF7
:10109000761CE8E764089C40C90161408900E7D1FB
:1010A0000124A043E4E71B0E440200D0034870BDB6
:1010B000002AFCD1C00FC00770BD00BF0000C07F78
:1010C0000123DB0502000A430DD4DA4203D49A421D
:1010D00007D488427047D84214D4D94212D48842E7
:1010E000704780427047DA4203D59A42F9D581426F
:1010F00070475B004200DA4204D24A00DA4201D271
:101100008142704710B5024AFFF742F910BD00BF97
:10111000090013040123DB0502000A430DD4DA425F
:1011200003D49A4207D488427047D84214D4D94293
:1011300012D48842704780427047DA4203D59A42FF
:10114000F9D5814270475B004200DA4204D24A007E
:10115000DA4201D28142704710B5024AFFF718F90E
:1011600010BD00BF0900160470B5420064414B0079
:101170005C41120E39D01B0E38D0FF2A3CD0FF2B19
:101180003AD0D2187F3A40024902400A490A45182B
:10119000ED0106004E43000A090A48430104731A90
:1011A0004019190C4318990F04D05B080121490715
:1011B0005B1A521CD80904D3401CF50301D19D06CB
:1011C00007D0FF2A08D2D50506D0E40720434019EE
:1011D00070BD0125A843F4E7002A01DCE00770BDDB
:1011E0002402FF202043C00570BD1B0EFF2A03D040
:1011F000FF2B01D0E00770BDFF2636064500B54243
:1012000006D84D00B54203D8D218FF2A00D0E7E730
:10121000004870BD0000C07F70B50125ED070400D7
:101220004C4022D4441A02D26C40001B0919C60D4E
:101230004B00F2B2FF2A4BD01B0E50D000020C0222
:10124000A8432C43D31ADC40051B05D5AD0019D3A8
:101250006D08761E521E37D0F605280A01D2801975
:1012600070BD70416D0603D070BD6940FFF7E8FEA8
:101270009C4009026140490001D0401E70BD01241C
:10128000A04370BD6D081DD001202B0C01D12D0491
:1012900010302B0E01D12D0208302B0F01D12D0162
:1012A000001DAB0F01D1AD00801CEB0F01D16D0013
:1012B000401C361A121A6D00680AF5054019012AF9
:1012C00002DB70BD002070BDC036300AC00770BDA3
:1012D0001B0E440201D1FF2B00D1024870BD002A31
:1012E000F0D070BD0000C07F8182838485868788AE
:1012F000898B8C8D8E8F919293959697999A9C9DC0
:101300009FA0A2A3A5A7A8AAACAEB0B2B3B5B7B927
:10131000BCBEC0C2C5C7C9CCCED1D4D7D9DCDFE2F0
:10132000E6E9ECF0F3F7FAFE96140000E114000091
:10133000E1140000E1140000E1140000DC140000DE
:10134000E1140000E1140000E1140000E1140000C9
:10135000E1140000E1140000E1140000A5140000F5
:10136000A0140000E6140000E1140000E1140000E5
:10137000E1140000E1140000E1140000E114000099
:10138000E1140000E1140000E1140000E114000089
:101390009B140000E1140000E1140000E1140000BF
:1013A000E1140000E1140000E11400001414000036
:1013B000191400001E14000023140000281400005B
:1013C0002D14000032140000371400003C140000FB
:1013D00041140000461400004B140000501400009B
:1013E000551400005A1400005F140000641400003B
:1013F000691400006E1400007314000078140000DB
:101400007D14000082140000871400008C1400007A
:10141000911400007E1111117E7F494949363E41E9
:101420004141227F4141221C7F494949417F0909AD
:1014300009013E4149497A7F0808087F00417F4100
:10144000000E0404241824283028287F40404040FF
:101450007F020C027F7F0408107F3E4141413E7FA6
:10146000090909063E41493E087F091929464649AE
:1014700049493101017F01013F4040403F1F204069
:10148000201F494949362812140814120708700809
:10149000071E0204081E000000000000363600008F
:1014A000006060000008080808083E5149453E00F9
:1014B000427F400042615149462141454B31181459
:1014C000127F1027454545393C4A49493001710989
:1014D00005033649494936064949291E62640813FD
:1014E0002302015109062010080402000105000032
:1014F0000000000008000000800200000001000061
:1015000010150000000020208006000028010000C7
:04000005000000C136
:00000001FF
