:020000040000FA
:10000000B80620206D01000071010000730100009E
:1000100000000000000000000000000000000000E0
:10002000000000000000000000000000750100005A
:1000300000000000000000007701000079010000CE
:100040007B0100007B0100007B0100007B010000C0
:10005000390500007B0100007B0100007B010000EE
:10006000000000007B0100007B0100000000000098
:10007000000000007B0100007B0100007B0100000C
:100080007B0100007B010000F90800007B010000FB
:100090007B0100007B010000000000000000000068
:1000A0007B0100007B010000000000000000000058
:1000B0007B010000000000007B0100007B010000CC
:1000C00000F002F800F042F812A030C808382418F6
:1000D0002D18AC4201D100F039F80FCCA246AB4646
:1000E0000CA730CF2D1B083F3F197C427F1E544484
:1000F0002D090426F441641EAC4201D300F026F819
:100100000126334200D0FB1A3343984754465D46DC
:10011000DFE700004C3800005C3800000000000001
:100120007047000000000000002300240025002686
:10013000103A01D378C1FBD8520700D330C100D5A3
:100140000B6070471FB51FBD10B510BD00F072F9F0
:100150001146FFF7F7FF00F069FD00F08AF903B4DC
:10016000FFF7F2FF03BC00F0DFF90000064800478C
:10017000FEE7FEE7FEE7FEE7FEE7FEE70348044989
:10018000024A044B70470000C1000000B80520205F
:10019000B8062020B805202001E004C0091F04296A
:1001A000FBD28B0701D50280801CC90700D00270EA
:1001B000704700290BD0C30702D00270401C491EB3
:1001C000022904D3830702D50280801C891EE3E73D
:1001D0000022EEE70022DFE770477047704700001B
:1001E000F0B5FF252D04C609C209FF2704462E409D
:1001F0000137CB093E4348402A402B400746002A9E
:100200006BD0002B69D0AA4267D0AB4265D00028E2
:1002100000DA32460125ED0529432C43090220026C
:10022000090AD21A4B0C7F24E31A434C000A7C447F
:10023000E35C7D242404121914145B00A218884284
:1002400001D3521C00E0400049420C465C4324119B
:100250005C43DB016415E318040A5C43C502200D0E
:100260000C4644436419250A5D432303EC0C0D46F8
:10027000654300030019EB184C42A34201D35B18FD
:10028000401CD4052018002B07D05B00C91804D3EC
:10029000401C002901D1400840003F2189048A42C6
:1002A00009D3002A08DC1106090F04D003214907ED
:1002B0004018C00FC007F0BD012241001206891886
:1002C0007F2252069142F6D205214907C84201D544
:1002D0009010F0BDFF20C005F0BD002F00DA3246BF
:1002E0001648AA4207D2AB4205D21902090E17D00E
:1002F000F80FC007F0BDFF2563002D06AB42F9D80B
:100300004900A942F6D8AB4201D1A942F2D0A94294
:1003100001D1002101E061004908D0050843F0BD8A
:100320001102090EFBD0FF200243D005F0BD0A46A2
:100330000146104654E70000721B00000000C07F19
:100340000102C21504D00123DB071943002A0ADB8E
:100350009E239A1A02D40846D0407047FF224100DB
:100360001206914201D900207047C017C043704760
:100370001F22030C02D10F2200041CD0030E01D156
:100380000002083A030F01D10001121F830F01D1AF
:100390008000921E002801DB4000521ED205511839
:1003A000021251181922904004D3491C002801D18F
:1003B0004908490008467047C10FC90700D04042AC
:1003C000012292071143D3E701218907D0E70000FA
:1003D00010B5FF231B0644009C421DD84C009C42D4
:1003E0001AD80346124A0B4307D4401A02D3EFF33C
:1003F000008010BDEFF3008010BD081A03D3EFF3A7
:100400000080904305E0EFF3008001219043C9078D
:10041000084380F3008810BD0D231B041A4204D04A
:100420001146002000F02DF810BD00F041F810BD7D
:1004300000000090754600F043F8AE46050069469E
:100440005346C008C000854618B020B5FFF796FE99
:1004500060BCB64600260027C0C5C0C5C0C5C0C523
:10046000C0C5C0C5C0C5C0C5403D490849008D468E
:10047000704710B50446C046C0462046FFF76FFEE1
:1004800010BDC80212D54803400F002804D0C8038D
:10049000C043012188407047EFF30080000100094C
:1004A00003210907084380F3008870470020704744
:1004B00010B5024800F008F810BD00000000C07F31
:1004C000004870470000202010B50C461107090FA6
:1004D000092904D00A290AD008290CD104E01146C0
:1004E0000820FFF7CEFF06E0510606D501E05106D1
:1004F00001D50120C007214610BDD10607D5010155
:100500000909CC084907000E0006044309E0410F21
:1005100020024907000A0143200E00061D22D14196
:1005200001430846E7E7000001491820ABBEFEE79B
:100530002600020070470000014800687047C0466E
:1005400020100040B0B50A78032313400B4A8458AA
:100550000B4D2540EB18A92424061B1983500722B4
:1005600012064B6813401124240205599543EA18DA
:100570000251001949780161B0BDC0460808000069
:10058000FCFFFF00811E091F00BFFCD27047000066
:10059000F0B53C4A82183C4BC31808794E793B4D64
:1005A0003B4C002E23D0202804D00526F60100283D
:1005B00003D003E0374E002800D18826576F2F4024
:1005C00037435767976F2F4037439767566B2640DF
:1005D0005663966B264096630026566596658F2671
:1005E000F6435F6837405F609F6837409F608E7951
:1005F000096820280BD0002819D1491E5160D76EF8
:100600002F4088210F43D7661746703719E0491EDF
:100610005160D16E29401F4F3943D166116F294077
:1006200039431167012149071B4D174609E0490865
:100630005160D76E2F400521C9010F43D766174679
:1006400070373C682C400C433C60D16A104C214010
:10065000D162116B214011630021D16411658F219A
:10066000C943D46F0C40D4671C680C401C6006431F
:10067000BD2030401168094B0B40C018801C106031
:10068000F0BDC046041800008418000024493E0054
:100690008888FDFF01040000FFFFFFCF4000FFCF6F
:1006A00010B507239B04194092008018024A845811
:1006B0009C436118815010BD3018000010B5029C99
:1006C000A400001911431943014A815010BDC046CE
:1006D0005018000092008018014A81507047C046AF
:1006E0001018000010B50122120383180C789C60CA
:1006F0004B7883508978014A815010BD0C1100005D
:1007000010B50124A0071049FFF71CFF0F484168EE
:100710000F4A0A4021045118416081680D4A0A407D
:100720002106511881600C4900220A604C60610268
:100730000A4A136A0B43136213680B431360016880
:100740002143016010BDC046E41D000000110040BF
:10075000FEFFECFFF8FFE0E08011004028100040B1
:1007600010B517488521016001225305154C2360FF
:10077000872343609205226001604360014650393F
:1007800081220A60014654390A6001463C390A60F8
:1007900001464C390A60014648390A600A490A6034
:1007A0000A49C1600246443A11600246403A11606B
:1007B00038380160064807490160016410BDC04631
:1007C000B8804240D0120A40E480424081000C00D0
:1007D00090320A40004F0004B0B582B0144C154965
:1007E0002046FFF77FFF14492046FFF7D1FE002582
:1007F00000950C23204629462A46FFF75FFF204636
:1008000029462A46FFF74CFF0520C10120462A460B
:10081000FFF760FF09480A4901600A480121816029
:10082000094A13680B431360016002B0B0BDC046B3
:1008300000008640EC1D0000F01D0000A41886405A
:100840001000100000118640281086400D4800213D
:1008500001600320C1430C48021F13680B40136062
:100860004168012291434160110242688A4342601B
:10087000016830229143016001680F2291430160B9
:100880007047C04608030B4004010B40704700004E
:1008900080B500F011F8FFF763FFFFF7D7FFFFF710
:1008A0009BFFFFF72DFFFFF7F1FFB8200149002262
:1008B0000A5480BDBC00202010B509480949416098
:1008C000094A5160094B5960094C6160094901604E
:1008D0001160196021601020FFF754FE10BDC04662
:1008E00000080A40030000B100280A4000088640C2
:1008F000000800400100002605480068C0B2012839
:1009000005D10120000203490A6802430A607047CA
:100910002010864004110040F0B584B00121009100
:100920000A02A14B1C6C14431C641D68A1490D40B4
:100930001D6000252F4603E04000771C072E66D27D
:100940003E461F6897438024044064003C191C60A5
:100950000195019C0F2C17D8019C641C0194019CEB
:100960000F2C11D8019C641C0194019C0F2C0BD8F6
:10097000019C641C0194019C0F2C05D8019C641CF3
:100980000194019C102CE7D300994C021F68274367
:100990001F6000270297029C0F2C17D8029C641C32
:1009A0000294029C0F2C11D8029C641C0294029C9D
:1009B0000F2C0BD8029C641C0294029C0F2C05D8AF
:1009C000029C641C0294029C102CE7D31C68794999
:1009D0000C401C600397039C0F2CADD8039C641C37
:1009E0000394039C0F2CA7D8039C641C0394039CC2
:1009F0000F2CA1D8039C641C0394039C0F2C9BD840
:100A0000039C641C0394039C102CE7D394E704B06C
:100A1000F0BDC046F0B581B06349086C634A104030
:100A20000864012002020C6814430C600025009544
:100A3000009C072C17D8009C641C0094009C072C79
:100A400011D8009C641C0094009C072C0BD8009CBF
:100A5000641C0094009C072C05D8009C641C009426
:100A6000009C082CE7D344020E6826430E600095D4
:100A7000009E072E17D8009E761C0096009E072E1B
:100A800011D8009E761C0096009E072E0BD8009E63
:100A9000761C0096009E072E05D8009E761C0096B8
:100AA000009E082EE7D3424F424E3B6813420ED0C1
:100AB0003B6813420BD03B68134208D002232B4300
:100AC000F92B0AD83B68134201D02D1DEDE70868C9
:100AD00030400860002001B0F0BD0B6C13430B6484
:100AE0000B6833400B600B68304D2B400B600023CC
:100AF0000093009D1F2D17D8009D6D1C0095009D33
:100B00001F2D11D8009D6D1C0095009D1F2D0BD829
:100B1000009D6D1C0095009D1F2D05D8009D6D1C2E
:100B20000095009D202DE7D30D6825430D600093AF
:100B3000009C1F2C17D8009C641C0094009C1F2C48
:100B400011D8009C641C0094009C1F2C0BD8009CA6
:100B5000641C0094009C1F2C05D8009C641C00940D
:100B6000009C202CE7D30C6814430C600093009980
:100B70001F29B0D80099491C009100991F29AAD8B3
:100B80000099491C009100991F29A4D80099491C7B
:100B9000009100991F299ED80099491C0091009945
:100BA0002029E7D397E7C04680320A40FFFEFFFFC7
:100BB00080330A40FFFDFFFF70B51E460D46044618
:100BC00016491046FFF70CFBA062616A00F084FF33
:100BD00000281CD013493046FFF702FB0146284687
:100BE00000F086FF0146204600F0D8F806460E4D7C
:100BF000294600F066FF002800D135460026284629
:100C0000314600F069FF002804D12E4602E0044876
:100C1000E0620026E664304670BDC0460AD89F3CBC
:100C200000C07944CDCCCCBE3333733F84B0FFF7E2
:100C30002FFE45480168012203921143016014020E
:100C400021464031414800252A46FFF743FD404EEA
:100C5000306880B2FFF7B8FB3E4900F0E3FF732134
:100C6000CF05394600F0DEFF71683B4A106088B25C
:100C7000FFF7AAFB374900F0D5FF394600F0D2FF55
:100C800036490860364E0398307000F0FDFE354F4F
:100C900038460C3043210901FFF79CFA354B3649A1
:100CA0003648374A3A607860B96036487B623049E6
:100CB000B9622E49F96238632B4878633846294671
:100CC00000F0ECFE7821384600F0E0FE384600F0F7
:100CD00063FB384600F0C4F80C200521009103990D
:100CE0000191029028A3384629462A4600F050FA7E
:100CF000384600F0B1F928200090039801901422A2
:100D00001E233846294600F047F9384600F0A4F97A
:100D10001F4F38682043386030780028F9D00E48DB
:100D200002680E4803683F2001061A48FFF744FF97
:100D3000194900F077FFFFF703FB014603482A46F5
:100D4000FFF7C8FC3570E4E70418864000008640D1
:100D5000806255403333534078012020B800202072
:100D6000B40020207C012020B71500006D1A00007F
:100D7000651A0000691A000021160000FB1500002A
:100D800001160000B515000048656C6C6F0000008E
:100D9000041100406000202000002044F0B585B020
:100DA00004464068049100F03DFF0646E060A769F4
:100DB000394600F086FE039000283D4600D13546B6
:100DC0000120C007009047402846394600F084FEC5
:100DD00000283E4600D12E460398002805D128461B
:100DE000394600F063FE002800D1E6600396E6690C
:100DF0000021304600F05AFE276961690191A1681F
:100E000002912568002802D100984640E661049EC0
:100E1000266167613046394600F05CFF014628468E
:100E200000F000FF039900F063FE0546384639469E
:100E300000F05EFE0146304600F04CFF019900F0E4
:100E400057FE0146029800F0EDFE0146284600F0EC
:100E50004FFE216A00F04CFE206205B0F0BD00009C
:100E6000F0B589B0002800D18AE00446054638353F
:100E70002878012800D086E020463B3002900026EA
:100E800003953046503805A90870A87801280196C6
:100E900009D000287AD16878A568002105AA012325
:100EA000A847039D08E0216A0020884700286DD1EB
:100EB000626905A801219047002867D106A800268D
:100EC0000670A8780128049608D000285ED16878BA
:100ED000A668002106AA0123B04708E0216A002085
:100EE0008847002852D1626906A80121904700284E
:100EF0004CD107A810210170A878012808D000283B
:100F000044D16878A668002107AA0123B04708E009
:100F1000216A00208847002838D1626907A801218A
:100F20009047002832D18027029E0499317008A88A
:100F30000170A87801280BD0002827D16878A5680F
:100F4000402108AA0123A847039D00280BD01DE0DB
:100F5000216A01208847002818D1626908A8012168
:100F60009047002812D17F1E0836002FDDD102984D
:100F7000401C0290019E761C082E049881D109E045
:100F8000022009B0F0BD032009B0F0BD216B7F48FD
:100F90008847012009B0F0BDF0B585B00293002864
:100FA00047D00B463821415C012944D159B2042471
:100FB000264D002941D43F2A3FD8029949B2052441
:100FC000234D002939D40A9904913F2935D80624A4
:100FD000204D02998B4230D804998A422DD80B9C1F
:100FE000019206E0039B5B1CD9B2029A9142019ADE
:100FF00029D80393DDB217460BE0E9004118C91860
:101000003B228B5CB3438B547F1CF9B2049A914210
:10101000E8D807233B4001269E40FBB2DB08002CAA
:10102000EBD0EA008218D2183B23D15C3143D15473
:10103000EAE7022404E0032402E0016B2846884723
:10104000204605B0F0BD0024FAE7C0467B3600001C
:101050005536000035390000F0B589B0002800D1C0
:1010600088E00446064638363078012800D084E00F
:1010700020463B300390002504962846503805A9A9
:101080000870B0780128029508D0002878D17078CF
:10109000A568002105AA0123A84708E0216A0020CD
:1010A000884700286CD1626905A801219047002873
:1010B00066D106A800250570B0780128019508D0F2
:1010C00000285DD17078A568002106AA0123A847F1
:1010D00008E0216A00208847002851D1626906A8EB
:1010E0000121904700284BD107A810210170B0784A
:1010F000012808D0002843D17078A568002107AAEC
:101100000123A84708E0216A00208847002837D13A
:10111000626907A801219047002831D18027039DEB
:10112000287808A90870B07801280BD0002827D1AA
:101130007078A668402108AA0123B047049E0028C1
:101140000BD01DE0216A01208847002818D1626970
:1011500008A801219047002812D17F1E0835002FD2
:10116000DED10398401C0390029D6D1C082D019850
:1011700083D109E0022009B0F0BD032009B0F0BD21
:10118000216B02488847012009B0F0BDFB35000003
:10119000F0B593B01090002816D03820109C205C39
:1011A000012813D148B2002812D43F2A10D8189D24
:1011B0000020002D12D000901A9C60071194E408C2
:1011C00000280DD120460CE00221D8E00321D6E012
:1011D0001098016B6F4888470421D0E00146CEE0AB
:1011E000601C199C0E94119C660870430290C0B25A
:1011F00009903F20001B06907F20019670400590CB
:101200000AE0019807990918049B5B1C039D6D1E59
:101210002804089A00D1AFE018782038C0B20A90AC
:101220005E2800D9AAE0CCB200260598A042089614
:10123000304600D308460599A14201D211995218AF
:1012400003950493D1B2069B8B42089B079300DB66
:1012500007900698884200DB089202980006119ACF
:10126000CFD00121182A00D989E0012630469040CC
:10127000444B184200D182E0089DE8B20F90002351
:10128000079C0D9607E00B9C641C089D0C9B5B1C47
:1012900009988342B5D0102A0C9306D00C2A08D1A5
:1012A0000C200A994843394907E00A980001364959
:1012B00003E024200A99484335490818C0180B94C4
:1012C000E1B21291077800240720294601403346F5
:1012D0008B40E9B2C9087AB2002A0BD40E9A002AD0
:1012E0000BD0129AD200109EB21851183B228E5C7D
:1012F0009E430AE00E9A002AF3D0129AD200109E62
:10130000B21851183B228E5C1E438E546B1CD9B20E
:101310000F9A8A1A119EB24232460D9EB3D00340F4
:1013200030469840C9087A060BD40E9A002A0BD092
:10133000129AD200109B9A1851183B228B5C83435F
:101340000AE00E9A002AF3D0129AD200109B9A1843
:1013500051183B228B5C03438B54119AAD1CE8B2AD
:101360000F99401A90428ED0A01C3443BF00072C26
:101370000446A9D30B9C89E7002100E000990846A8
:1013800013B0F0BD001001016C220000F81D000038
:101390005C2800005D370000F0B581B0002833D034
:1013A0000546016B0324002977D0286800282DD03A
:1013B000686800282DD0A86800282DD0E86800288B
:1013C0002DD0286900282DD0686900282DD0686BA1
:1013D00000282DD0A86900282DD0EA69002A2DD038
:1013E0002A6A002A2DD06A6A002A2DD0AA6A002A09
:1013F0002DD0EA6A002A2DD0804700282DD0296BF5
:101400003BA08847052448E0022446E06848884716
:1014100043E06648884740E0634888473DE06148CC
:1014200088473AE05E48884737E05C48884734E0C0
:101430005948884731E0574888472EE05448884744
:101440002BE05248884728E04F48884725E04D4820
:10145000884722E04A4888471FE0686A804700289A
:1014600004D0296B2DA08847E86914E0E96A0024BC
:1014700020468847002808D1696B64208847E96ABC
:1014800001263046884700280AD0296B2C48884717
:10149000E8698047A86A80470424204601B0F0BD6F
:1014A0002F463837B878012808D0002813D128688B
:1014B0008047002818D0296B29A005E0E8688047FC
:1014C000002811D0296B1FA08847E8698047A86AC7
:1014D00080473446E1E7296B28488847E869804718
:1014E000A86A80470624D8E701203870D5E7C046AF
:1014F000737364313330363A2073706920636D64DE
:101500002064617461206770696F20696E6974205E
:101510006661696C65642E0A0000000073736431B3
:101520003330363A207265736574206770696F20B6
:10153000696E6974206661696C65642E0A0000003A
:10154000D8350000737364313330363A20737069D4
:1015500020696E6974206661696C65642E0A0000FA
:10156000737364313330363A2069696320696E6978
:1015700074206661696C65642E0A000035360000CF
:10158000E33700001039000085380000B83700004C
:10159000E43800005B380000073800007A370000AC
:1015A000C63800003F3800009B370000A838000014
:1015B00023380000704781B0002100917D2109028D
:1015C000414388080099814215D20099491C009135
:1015D000009981420FD20099491C009100998142E3
:1015E00009D20099491C00910099814203D20099C7
:1015F000491C0091E6E701B07047002070470000E9
:1016000001200102DF4A136C0B43136413680B4380
:101610001360400211680143116000207047C0460A
:10162000F0B587B01D461646019101221302D54F31
:10163000396C19433964396804931943396002924B
:1016400052023968039211433960002206920699CA
:101650001F2917D80699491C069106991F2911D8E8
:101660000699491C069106991F290BD80699491C11
:10167000069106991F2905D80699491C06910699D5
:101680002029E7D33968F54B194039600592069255
:1016900006991F2917D80699491C069106991F29F2
:1016A00011D80699491C069106991F290BD806994D
:1016B000491C069106991F2905D80699491C0691CF
:1016C00006992029E7D33968E54C21403960FFF7B6
:1016D00023F9FFF79FF900286BD0386C049A104368
:1016E00038643868204038603868DC490840386021
:1016F0000599069106981F2817D80698401C069051
:1017000006981F2811D80698401C069006981F2896
:101710000BD80698401C069006981F2805D80698F6
:10172000401C069006982028E7D33868039B18438E
:101730003860069106981F2817D80698401C069016
:1017400006981F2811D80698401C069006981F2856
:101750000BD80698401C069006981F2805D80698B6
:10176000401C069006982028E7D33868104338605C
:10177000069106981F2800D96DE10698401C069036
:1017800006981F2800D966E10698401C0690069826
:101790001F2800D95FE10698401C069006981F2874
:1017A00000D958E10698401C069006982028E4D3FA
:1017B00051E10198FFF7B0F8FFF72CF9002874D039
:1017C000386C049A104338643868204038603868B0
:1017D000A249084038600599069106981F2817D835
:1017E0000698401C069006981F2811D80698401CA1
:1017F000069006981F280BD80698401C069006985D
:101800001F2805D80698401C069006982028E7D384
:101810003868039B18433860069106981F2817D82C
:101820000698401C069006981F2811D80698401C60
:10183000069006981F280BD80698401C069006981C
:101840001F2805D80698401C069006982028E7D344
:10185000386810433860069106981F2800D9FAE0CE
:101860000698401C069006981F2800D9F3E00698B9
:10187000401C069006981F2800D9ECE00698401CF2
:10188000069006981F2800D9E5E00698401C0690AF
:1018900006982028E4D3DEE03078FFF73DF8FFF724
:1018A000B9F8002870D16D1E761C002DF4D1386C6B
:1018B000049A1043386438682040386038686749B3
:1018C000084038600599069106981F2817D8069891
:1018D000401C069006981F2811D80698401C0690B8
:1018E00006981F280BD80698401C069006981F28BB
:1018F00005D80698401C069006982028E7D338683B
:10190000039B18433860069106981F2817D806983D
:10191000401C069006981F2811D80698401C069077
:1019200006981F280BD80698401C069006981F287A
:1019300005D80698401C069006982028E7D33868FA
:1019400010433860069106981F2817D80698401C47
:10195000069006981F2811D80698401C06900698F5
:101960001F280BD80698401C069006981F2805D8FB
:101970000698401C069006982028E7D3084607B032
:10198000F0BDC04680320A40386C049A1043386477
:101990003868204038603868304908403860059918
:1019A000069106981F2817D80698401C069006989E
:1019B0001F2811D80698401C069006981F280BD89F
:1019C0000698401C069006981F2805D80698401CCB
:1019D000069006982028E7D33868039B18433860A0
:1019E000069106981F2817D80698401C069006985E
:1019F0001F2811D80698401C069006981F280BD85F
:101A00000698401C069006981F2805D80698401C8A
:101A1000069006982028E7D338681043386006916E
:101A200006981F2817D80698401C069006981F286D
:101A300011D80698401C069006981F280BD80698C7
:101A4000401C069006981F2805D80698401C069052
:101A500006982028E7D3029807B0F0BDFFFEFFFFED
:101A6000FFFDFFFF0020704700207047411E8841A6
:101A7000800301218903034A13688B4318181060FF
:101A80000020704780320A4001207047002803D0B0
:101A9000392281540020704702207047002803D06B
:101AA0003A228154002070470220704710B500F0A0
:101AB00065F8EFF30080800001D5012010BD002003
:101AC00010BD10B500F05AF8EFF300804000800F11
:101AD000012800D0002010BD10B500F079F8EFF318
:101AE0000080800001D4012010BD002010BD000046
:101AF00070B50125ED0704004C4020D4441A01D2F2
:101B0000001B0919C60D4B00F2B2FF2A29D01B0E8B
:101B10002CD000020C0228432C43D31ADC400519B8
:101B200010D2280A02D3401C6D0611D0761EF6058D
:101B30008019FF2A00DA70BDC00DC00570BD694074
:101B400000F0CEF801200543C541521C761CE8E7A1
:101B500064089C40C90161408900E7D10124A04389
:101B6000E4E71B0E440200D0034870BD002AFCD1FC
:101B7000C00FC00770BD00BF0000C07F0123DB05A0
:101B800002000A430DD4DA4203D49A4207D48842B1
:101B90007047D84214D4D94212D488427047804248
:101BA0007047DA4203D59A42F9D5814270475B000B
:101BB0004200DA4204D24A00DA4201D2814270473E
:101BC00010B5024AFEF704FC10BD00BF0900130463
:101BD0000123DB0502000A430DD4DA4203D49A4202
:101BE00007D488427047D84214D4D94212D48842CC
:101BF000704780427047DA4203D59A42F9D5814254
:101C000070475B004200DA4204D24A00DA4201D255
:101C10008142704710B5024AFEF7DAFB10BD00BFE3
:101C20000900160470B5420064414B005C41120E7D
:101C300039D01B0E38D0FF2A3CD0FF2B3AD0D21817
:101C40007F3A40024902400A490A4518ED01060060
:101C50004E43000A090A48430104731A4019190C3B
:101C60004318990F04D05B08012149075B1A521CE5
:101C7000D80904D3401CF50301D19D0607D0FF2AE3
:101C800008D2D50506D0E4072043401970BD0125D0
:101C9000A843F4E7002A01DCE00770BD2402FF201E
:101CA0002043C00570BD1B0EFF2A03D0FF2B01D0BF
:101CB000E00770BDFF2636064500B54206D84D0048
:101CC000B54203D8D218FF2A00D0E7E7004870BD1C
:101CD0000000C07F70B50125ED0704004C4022D400
:101CE000441A02D26C40001B0919C60D4B00F2B217
:101CF000FF2A4BD01B0E50D000020C02A8432C43ED
:101D0000D31ADC40051B05D5AD0019D36D08761E2E
:101D1000521E37D0F605280A01D2801970BD7041D5
:101D20006D0603D070BD6940FFF7E8FE9C400902D4
:101D30006140490001D0401E70BD0124A04370BD28
:101D40006D081DD001202B0C01D12D0410302B0E5D
:101D500001D12D0208302B0F01D12D01001DAB0F39
:101D600001D1AD00801CEB0F01D16D00401C361A73
:101D7000121A6D00680AF5054019012A02DB70BDD0
:101D8000002070BDC036300AC00770BD1B0E440273
:101D900001D1FF2B00D1024870BD002AF0D070BDE8
:101DA0000000C07F8182838485868788898B8C8DA3
:101DB0008E8F919293959697999A9C9D9FA0A2A39E
:101DC000A5A7A8AAACAEB0B2B3B5B7B9BCBEC0C2E5
:101DD000C5C7C9CCCED1D4D7D9DCDFE2E6E9ECF077
:101DE000F3F7FAFE01050000000000000800000003
:101DF0008002000000010000000000000000000060
:101E000000000000000000003F4000000000000053
:101E100000003000400030004000000009000BC00E
:101E20003D000BC03D00090018C024407FE0224067
:101E300031800000180024C01B000D80324001805A
:101E400003801C4027401C800740004010006000B9
:101E500000000000000000000000000000001F80E3
:101E6000204040200000402020401F800000000053
:101E7000090006001F80060009000000040004009D
:101E80003F8004000400000000100060000000001B
:101E9000000000000400040004000400040000002E
:101EA000000000400000000000000000002001C011
:101EB00006003800400000001F80204020402040E5
:101EC0001F800000000010403FC0004000000000E4
:101ED00018C02140224024401840000010802040BB
:101EE000244024401B80000002000D0011003FC070
:101EF000014000003C802440244024402380000016
:101F00001F80244024403440038000003000200023
:101F100027C03800200000001B80244024402440BB
:101F20001B8000001C0022C0224022401F800000B5
:101F30000000000008400000000000000000000059
:101F40000460000000000000000004000A0011000E
:101F50002080404009000900090009000900000034
:101F600000004040208011000A00040018002000FA
:101F700023402400180000001F80204027402940F3
:101F80001F400000004007C039000F0001C00040A2
:101F900020403FC0244024401B8000001F80204080
:101FA000204020403080000020403FC020402040A2
:101FB0001F80000020403FC024402E4030C0000061
:101FC00020403FC024402E00300000000F00108051
:101FD000204022403380020020403FC00400040023
:101FE0003FC02040204020403FC020402040000013
:101FF0000060202020203FC02000200020403FC063
:1020000024400B0030C0204020403FC02040004012
:10201000004000C03FC03C0003C03C003FC0000087
:1020200020403FC00C4023003FC020001F802040C4
:10203000204020401F80000020403FC0244024005A
:10204000180000001F802140214020E01FA0000058
:1020500020403FC02440260019C0004018C0244042
:102060002440224031800000300020403FC020400A
:102070003000000020003F80004000403F802000F2
:1020800020003E0001C0070038002000380007C0D3
:102090003C0007C038000000204039C0060039C0AD
:1020A000204000002000384007C0384020000000D9
:1020B000304021C02640384020C000000000000011
:1020C0007FE0402040200000000070000C000380F2
:1020D000004000000000402040207FE000000000A1
:1020E0000000200040002000000000000010001050
:1020F0000010001000100010000000004000000060
:1021000000000000000002800540054003C00040C0
:1021100020003FC004400440038000000000038012
:1021200004400440064000000000038004402440B6
:102130003FC0004000000380054005400340000010
:10214000000004401FC0244024402000000002E0A2
:10215000055005500650042020403FC004400400B4
:1021600003C000400000044027C000400000000001
:1021700000100010041027E00000000020403FC0C5
:102180000140070004C00440204020403FC0004000
:102190000040000007C0040007C0040003C00000A6
:1021A000044007C00440040003C000400000038056
:1021B0000440044003800000041007F00450044071
:1021C00003800000000003800440045007F000106A
:1021D000044007C002400400040000000000064064
:1021E0000540054004C00000000004001F800440BA
:1021F00000400000040007800040044007C0004089
:102200000400070004C0018006000400060001C0AD
:10221000070001C006000000044006C0010006C01F
:10222000044000000410071004E0018006000400D0
:102230000000044005C0064004400000000000000B
:1022400004007BE040200000000000000000FFF0E0
:1022500000000000000040207BE0040000000000BF
:1022600040008000400020002000400000000000EE
:10227000000000000000000000000000000000005E
:1022800000001FCC000C000000000000000008004F
:10229000300060000800300060000000022003FCF5
:1022A0001E20022003FC1E200220000000000E1849
:1022B00011043FFF10840C78000000000F00108410
:1022C0000F3800C0077818840078000000780F8469
:1022D00010C411240E9800E400840008080068006F
:1022E000700000000000000000000000000000007E
:1022F000000007E01818200440020000000040021F
:102300002004181807E0000000000000024002400E
:1023100001800FF001800240024000000080008038
:1023200000800FF800800080008000000001000D98
:10233000000E00000000000000000000000000800F
:102340000080008000800080008000800000000C81
:10235000000C00000000000000000000000000066B
:10236000001800600180060018002000000007F03F
:10237000080810041004080807F000000000080412
:1023800008041FFC000400040000000000000E0C04
:1023900010141024104411840E0C000000000C18BE
:1023A00010041104110412880C700000000000E0F9
:1023B0000320042408241FFC0024000000001F98B0
:1023C000108411041104108810700000000007F040
:1023D00008881104110418880070000000001C0017
:1023E000100010FC13001C001000000000000E384C
:1023F00011441084108411440E38000000000700BE
:10240000088C10441044088807F000000000000009
:102410000000030C030C000000000000000000009E
:102420000001010600000000000000000000008024
:1024300001400220041008081004000002200220BD
:1024400002200220022002200220000000001004CE
:1024500008080410022001400080000000000E0067
:102460001200100C106C10800F00000003E00C181C
:1024700013E4142417C4082807D000000004003C0B
:1024800003C41C40074000E4001C000410041FFCAF
:102490001104110411040E880070000003E00C18F0
:1024A00010041004100410081C10000010041FFC7D
:1024B000100410041004080807F0000010041FFCAA
:1024C0001104110417C410040818000010041FFCA4
:1024D0001104110017C010000800000003E00C18E0
:1024E0001004100410441C780040000010041FFC6D
:1024F00010840080008010841FFC10040000100471
:1025000010041FFC10041004000000000003000170
:10251000100110011FFE10001000000010041FFC2D
:10252000110403801464181C1004000010041FFC24
:102530001004000400040004000C000010041FFC40
:102540001F0000FC1F001FFC1004000010041FFCF3
:102550000C04030000E010181FFC100007F008082E
:10256000100410041004080807F0000010041FFCF9
:1025700010841080108010800F00000007F00818F1
:1025800010241024101C080A07F2000010041FFC7D
:102590001104110011C011300E0C000400000E1CBB
:1025A00011041084108410441C380000180010001E
:1025B00010041FFC100410001800000010001FF889
:1025C00010040004000410041FF8100010001E0086
:1025D00011E0001C007013801C0010001FC0103C94
:1025E00000E01F0000E0103C1FC000001004180CA9
:1025F000163401C001C01634180C100410001C0061
:10260000130400FC13041C00100000000804101C3C
:102610001064108413041C04101800000000000053
:1026200000007FFE40024002400200000000300037
:102630000C0003800060001C00030000000040024A
:10264000400240027FFE0000000000000000000089
:102650002000400040004000200000000001000178
:102660000001000100010001000100010000400024
:102670004000200000000000000000000000009862
:10268000012401440144014400FC000410001FFC2B
:102690000088010401040088007000000000007040
:1026A000008801040104010400880000000000709B
:1026B00000880104010411081FFC0004000000F858
:1026C000014401440144014400C800000000010429
:1026D00001040FFC1104110411001800000000D6C1
:1026E00001290129012901C90106000010041FFC6C
:1026F000008401000100010400FC0004000001044A
:10270000190419FC0004000400000000000000038C
:1027100000010101190119FE0000000010041FFC56
:102720000024004001B4010C01040000000010046A
:1027300010041FFC0004000400000000010401FC60
:102740000104010001FC0104010000FC010401FC82
:10275000008401000100010400FC0004000000F8F6
:10276000010401040104010400F80000010101FF5B
:102770000085010401040088007000000000007062
:10278000008801040104010501FF000101040104A6
:1027900001FC00840104010001800000000000CC65
:1027A00001240124012401240198000000000100FB
:1027B000010007F80104010400000000010001F815
:1027C000000400040004010801FC00040100018071
:1027D0000170000C001001600180010001F0010C8B
:1027E000003001C00030010C01F0010000000104C4
:1027F000018C00740170018C010400000101018151
:102800000171000E001801600180010000000184C8
:10281000010C013401440184010C0000000000009F
:102820000000000001003EFC4002400200000000E9
:1028300000000000FFFF0000000000000000400258
:1028400040023EFC010000000000000000006000AB
:1028500080008000400040002000200000000000B8
:102860000000000000000000000000000000000068
:102870000000000000000000000000000000000058
:102880000000000000000000000000000000000F39
:1028900080380FFE380F8038000000000000000074
:1028A0000000000000000000000001000006000021
:1028B0000C00003800003100000600000C00003859
:1028C0000000300000000000000000006180006790
:1028D000F807F980006180006180006180006180FC
:1028E0000067F807F9800061800000000000000028
:1028F000000001C0E003E0F00630080418081FFFE4
:10290000FE040E080787F00381E0000000000000CD
:1029100001F000060C00040408060C7001F9C00068
:102920000E00003BE000EC18070808040C18000338
:10293000E00000000001E00007F003F818041C08A4
:1029400004170807E1D003C0E00023B0003C0800F2
:10295000200800001000000000000001000031000D
:10296000003200001C000000000000000000000019
:102970000000000000000000000000000000000057
:102980000000000000000000000000007F0001FFC8
:10299000C00780F00C0018100004200002000000A6
:1029A0000000002000021000040C00180780F00155
:1029B000FFC0007F000000000000000000000000D9
:1029C00000000000000000004200006600006600F9
:1029D000003C0000180003FFC0001800003C00008D
:1029E00066000066000042000000000008000008C9
:1029F0000000080000080000080001FFC0000800F7
:102A000000080000080000080000080000000000A6
:102A1000000100003100003200001C000000000036
:102A200000000000000000000000000000000000A6
:102A30000000000008000008000008000008000076
:102A40000800000800000800000800000800000856
:102A50000000000000000000000000003800003806
:102A6000000038000000000000000000000000002E
:102A70000000000000000000000000000006000050
:102A80001C000070000180000E0000380000C00033
:102A90000700001C000030000000000000000000E3
:102AA0007F8001FFE0038070060018040008040026
:102AB0000806001803807001FFE0007F800000001E
:102AC00000000000000001000801000801000803E8
:102AD000FFF807FFF80000080000080000080000E9
:102AE0000000000000000001C03802C05804009837
:102AF000040118040218040418061C1803F818012D
:102B0000E0F800000000000000000001C0E003C089
:102B1000F004000804080804080806180803F4185C
:102B200001E7F00001E000000000000000000000EC
:102B30000300000D00001100006100008108030186
:102B40000807FFF80FFFF800010800010800000067
:102B50000000000000E007FCD00608080610080688
:102B60001008061008061838060FF00607C0000007
:102B700000000000000000003F8001FFE0038430FF
:102B8000020818041008041008041008071810039D
:102B90000FF00007C000000000000000000003C0AC
:102BA000000700000600000600F80607F8061800F7
:102BB00006E0000700000600000000000000000121
:102BC000E1E003F7F0063410041808041808040CB8
:102BD00008040C0806161803F3F001C1E000000019
:102BE00000000000F80003FC30030638040208046B
:102BF00002080402080404100308F001FFC0007F6B
:102C000000000000000000000000000000000000C4
:102C100000000000703800703800703800000000BC
:102C200000000000000000000000000000000000A4
:102C30000000000000000000301A00301C000000FE
:102C40000000000000000000000000000000000084
:102C50000000000800001400002200004100008075
:102C6000800100400200200400100800080000005D
:102C700000000000210000210000210000210000D0
:102C8000210000210000210000210000210000217E
:102C90000000000000000000000008000804001010
:102CA000020020010040008080004100002200005E
:102CB000140000080000000000000003C00004C071
:102CC00000040000080038080F3808083808100011
:102CD0000C300007E00003C000000000000000000E
:102CE0003F8000FFE0038070020F1006708804C070
:102CF00088048308047F8802C09003012000FE40FE
:102D00000000080000180001F8003E0801C200079A
:102D1000020007E20000FE00001FC80001F80000EA
:102D20003800000804000807FFF807FFF804080847
:102D300004080804080804080806180803F4180121
:102D4000E7F00001E0000000000000003F8001FF0C
:102D5000E003807002001804000804000804000862
:102D60000400100600200780C000000004000807CF
:102D7000FFF807FFF8040008040008040008040036
:102D80001802001003807001FFE0007F8000000047
:102D900004000807FFF807FFF804080804080804FF
:102DA0000808040808043E0804000806001801008A
:102DB0006000000004000807FFF807FFF804080897
:102DC000040800040800040800043E000600000691
:102DD0000000018000000000000000003F8001FFB3
:102DE000E0038070060018040008040208040208CA
:102DF0000203F00783F0000200000200040008074D
:102E0000FFF807FFF80408080008000008000008A1
:102E10000000080004080807FFF807FFF80400088E
:102E20000000000000000400080400080400080777
:102E3000FFF807FFF8040008040008040008000079
:102E40000000000000000000000600000700000174
:102E500004000104000104000307FFFE07FFFC0457
:102E6000000004000004000004000807FFF807FF4A
:102E7000F8040C08001800003E0004C7800503C8D1
:102E80000600F804003804001800000804000807D1
:102E9000FFF807FFF8040008000008000008000021
:102EA0000800000800000800001800006000000092
:102EB00004000807FFF807800807FC00007FC00037
:102EC00003F80007C000780007800807FFF807FF35
:102ED000F804000804000807FFF807000803C00012
:102EE00000E000003800001E000007000001C004E0
:102EF00000F007FFF8040000000000007F8001FFE1
:102F0000E00380700600180400080400080600189A
:102F100003003001FFE0007F80000000040008078C
:102F2000FFF807FFF8040408040400040400040484
:102F300000040400060C0003F80001F0000000008B
:102F4000000000007F8001FFE0038070060088041D
:102F500000880400C806003C03003E01FFE6007F35
:102F60008400000004000807FFF807FFF8040808C1
:102F7000040800040C00040F00040BC00610F0034A
:102F8000F03801E00800000800000001E0F803F05C
:102F900030063010041808041808040C08040C0843
:102FA0000206180207F00781E00000000180000619
:102FB000000004000004000004000807FFF807FFF9
:102FC000F80400080400000400000600000180006E
:102FD00004000007FFE007FFF004001800000800ED
:102FE000000800000800000800000804001007FFA7
:102FF000E004000004000006000007E00007FE00F7
:10300000041FE00001F80000380001E0043E000762
:10301000C00006000004000004000007E00007FFF5
:10302000C0041FF80007C007F80007FF80043FF83E
:103030000007C004F80007000004000000000004BE
:10304000000806001807C07805F1C8003E00001F00
:10305000800463E80780F8060018040008000000F8
:1030600004000006000007800007E008047C080058
:103070001FF80007F800180804E008070000060021
:10308000000400000000000100080600380400F8F9
:103090000403E8040F08047C0805F00807C00807CB
:1030A00000180400600000000000000000000000A4
:1030B000000000000000003FFFFE20000220000290
:1030C000200002200002200002000000000000009A
:1030D000000008000007000000C0000038000006E3
:1030E000000001C000003000000E000001000000E0
:1030F000000000000000200002200002200002204A
:1031000000022000023FFFFE00000000000000005F
:1031100000000000000000000000000000080000A7
:1031200010000030000020000030000010000008F7
:10313000000000000000000000000100000100008D
:103140000100000100000100000100000100000179
:10315000000001000001000001000001000000006B
:1031600000000000002000002000001000001000FF
:10317000000000000000000000000000000000004F
:103180000000000000F00019F8001B1800220800E1
:103190002608002408002410003FF8001FF8000053
:1031A0000800001800000004000007FFF80FFFF0FF
:1031B000001818001008002008002008003018002F
:1031C0001FF0000FC00000000000000007C0001F3B
:1031D000F0001830002008002008002008003C08FB
:1031E000001C100000600000000000000000000053
:1031F00007C0001FF0003818002008002008002039
:103200000804101007FFF80FFFF000001000000086
:103210000000000000000007C0001FF00012300096
:103220002218002208002208003208001E10000E9A
:1032300020000000000000002000002008002008FE
:1032400001FFF803FFF806200804200804200807FF
:10325000200003000000000000000000000E000E2F
:103260006E001FF30031B10020B10020B100319198
:10327000001F13002E1E00200E003000000000046E
:10328000000807FFF80FFFF80010080020000020DA
:1032900000002008003FF8001FF8000008000000B0
:1032A00000000000000000200800200800200806A0
:1032B0003FF8063FF8000008000008000008000082
:1032C00000000000000000000000000003000003F8
:1032D000002001002001002003063FFE063FFC0005
:1032E000000000000000000000000004000807FFCC
:1032F000F80FFFF8000188000300002FC00038F825
:103300000020380020080000080000000000000035
:10331000000004000804000804000807FFF80FFF7D
:10332000F80000080000080000080000000000008D
:10333000002008003FF8003FF800100800200000BF
:103340003FF8003FF8001008002000003FF8003F61
:10335000F8000008000000002008003FF8003FF8D7
:10336000001008001000002000002008003FF800B6
:103370001FF80000080000000000000007C0000F58
:10338000F000183000300800200800200800300845
:10339000001830000FF00007C0000000000000001F
:1033A0002001003FFF003FFF001011002009002016
:1033B00008002008003038001FF0000FC000000097
:1033C0000000000007C0001FF000381800200800AF
:1033D0002008002009001011001FFF003FFF00001F
:1033E00001000000002008002008002008003FF82D
:1033F000003FF80008080010080020080020000026
:103400003000003000000000000000000000000C50
:1034100078001E18003308002308002108002188C6
:103420000021980030F0003860000000000000002B
:10343000200000200000200000FFF003FFF8002023
:1034400008002008002008000030000000000000F4
:10345000000000002000003FF0007FF8000018008E
:103460000008000008002010003FF8007FF0000076
:1034700010000000000000002000003000003C00B0
:10348000003F800023F000007800007000238000DF
:103490003C00003000002000002000003C00003F05
:1034A000E00023F80000E0002700003E00003FE0BD
:1034B0000021F80001E0003E0000200000000000B4
:1034C0002008002008003838003E680027800003EC
:1034D000C8002CF800383800201800200800000030
:1034E000000000002000003003003C01003F83008A
:1034F00023EC000070002380003C0000200000202E
:103500000000000000000000000000380800203823
:103510000020F80023E8002F88003E08003808004B
:1035200020180000700000000000000000000000F3
:10353000000000000000000008000014001FF7FC5D
:103540003000062000020000000000000000000023
:103550000000000000000000000000000000FFFF6D
:10356000FF0000000000000000000000000000005C
:103570000000000000002000023000061FF7FC00E1
:10358000140000080000000000000000000000001F
:103590000000000000000018000060000040000073
:1035A000400000200000100000080000040000049B
:1035B00000000C0000100000737364313330363AA1
:1035C00020777269746520636F6D6D616E6420662B
:1035D00061696C65642E0A00737364313330363A66
:1035E000207265736574206770696F2077726974E3
:1035F00065206661696C65642E0A007373643133FB
:1036000030363A2077726974652062797465206675
:1036100061696C65642E0A00737364313330363A25
:1036200020696963206465696E6974206661696CEC
:1036300065642E0A00737364313330363A20696E44
:103640007465726661636520697320696E76616C6A
:1036500069642E0A00737364313330363A2072691C
:10366000676874206F7220626F74746F6D20697365
:1036700020696E76616C69642E0A0073736431335D
:1036800030363A206C656674206F7220746F70203B
:10369000697320696E76616C69642E0A00737364C5
:1036A000313330363A206164647220697320696E68
:1036B00076616C69642E0A00737364313330363A74
:1036C00020656E64206164647220697320696E767F
:1036D000616C69642E0A00737364313330363A20AA
:1036E0007374617274206164647220697320696EFE
:1036F00076616C69642E0A00737364313330363A34
:1037000020656E645F706167655F616464722069E3
:103710007320696E76616C69642E0A00737364317C
:103720003330363A2073746172745F706167655F1D
:103730006164647220697320696E76616C69642EBD
:103740000A00737364313330363A20726F77732016
:10375000697320696E76616C69642E0A0073736404
:10376000313330363A2078206F7220792069732007
:10377000696E76616C69642E0A007373643133304C
:10378000363A207370695F77726974655F636D6440
:10379000206973206E756C6C2E0A0073736431336C
:1037A00030363A206969635F77726974652069739E
:1037B000206E756C6C2E0A00737364313330363AA8
:1037C000207370695F636D645F646174615F6770CB
:1037D000696F5F7772697465206973206E756C6CB0
:1037E0002E0A00737364313330363A207265736584
:1037F000745F6770696F5F777269746520697320A1
:103800006E756C6C2E0A00737364313330363A2057
:1038100064656C61795F6D73206973206E756C6C83
:103820002E0A00737364313330363A206969635F5E
:10383000696E6974206973206E756C6C2E0A007352
:103840007364313330363A207370695F696E69741E
:10385000206973206E756C6C2E0A007373643133AB
:1038600030363A207370695F636D645F64617461C0
:103870005F6770696F5F696E6974206973206E7528
:103880006C6C2E0A00737364313330363A207265E3
:103890007365745F6770696F5F696E6974206973BF
:1038A000206E756C6C2E0A00737364313330363AB7
:1038B000206969635F6465696E6974206973206E4D
:1038C000756C6C2E0A00737364313330363A207392
:1038D00070695F6465696E6974206973206E756CC8
:1038E0006C2E0A00737364313330363A207370697A
:1038F0005F636D645F646174615F6770696F5F646B
:1039000065696E6974206973206E756C6C2E0A008F
:10391000737364313330363A2072657365745F6750
:1039200070696F5F6465696E6974206973206E7574
:103930006C6C2E0A00737364313330363A206C6538
:103940006674203E207269676874206F7220746FFD
:1039500070203E20626F74746F6D2E0A00000000AC
:103960007039000000002020B80600002801000087
:04000005000000C136
:00000001FF
