:020000040000FA
:10000000B006202085010000890100008B0100005E
:1000100000000000000000000000000000000000E0
:100020000000000000000000000000008D01000042
:1000300000000000000000008F010000910100009E
:1000400093010000E10A0000930100009301000009
:100050007908000093010000930100009301000063
:100060000000000093010000930100000000000068
:1000700000000000930100009301000093010000C4
:100080009301000093010000411100009301000062
:100090009301000093010000000000000000000038
:1000A0009301000093010000000000000000000028
:1000B0009301000000000000930100009301000084
:1000C00000F002F800F04FF812A030C808382418E9
:1000D0002D18AC4201D100F046F80FCCA246AB4639
:1000E0000CA730CF2D1B083F3F197C427F1E544484
:1000F0002D090426F441641EAC4201D300F033F80C
:100100000126334200D0FB1A3343984754465D46DC
:10011000DFE70000B41A0000C41A0000000000006D
:100120007047000000000000002300240025002686
:10013000103A01D378C1FBD8520700D330C100D5A3
:100140000B60704710B5752902D100F0A1F810BD01
:10015000732902D100F045FB10BD002010BD1FB572
:100160001FBD10B510BD00F054FB1146FFF7F7FF9F
:1001700001F0F6F800F06CFB03B4FFF7F2FF03BCEC
:1001800000F072FB06480047FEE7FEE7FEE7FEE7E9
:10019000FEE7FEE703480449024A044B70470000AB
:1001A000C1000000B0052020B0062020B0052020AE
:1001B0000FB41CB50C0007AA009007D04142A14221
:1001C00002D30019401E01E00020C043074B7B44CE
:1001D00069460190069800F0D6FA0020002C01D064
:1001E000009908701CBC08BC04B01847DB0500006F
:1001F00070B5044685690068C10601D5302600E067
:100200002026C00707D070BD62683046A1689047BD
:10021000206A401C20626D1EF6D570BD70B5044684
:1002200085690078C00707D170BD6268A168202089
:100230009047206A401C20626D1EF6D570BD70B5D7
:100240000C460546012A05D02878800600D5EA69C3
:10025000002302E0012305E05B1C934202D2E05C34
:100260000028F9D1A869E618C01AA861286AC01840
:1002700028622846FFF7BCFF04E06A682078A96876
:10028000641C9047B442F8D32846FFF7C7FF70BDFF
:10029000F7B5002575291068009914A611D0C0463D
:1002A000C046002802DA404211A608E00099096819
:1002B0008A0701D50FA602E0490704D50EA601253D
:1002C00001E0C046C046009F0024243704E000F04F
:1002D0008CFA30313955641C0028F8D12B4632464F
:1002E0002146009800F0F1F9FEBD0000000000007A
:1002F0002D0000002B00000020000000F3B5044694
:10030000002081B020622046E1688847002872D032
:10031000252802D06268A168ABE0594F00267F44CF
:100320002046E16888472028054608DB312D06D2A3
:10033000781920380078002801D00643F0E7B0078C
:1003400001D5042086430020E0610746A0612A2DE4
:100350000AD0284601F0B9FA002827D0B8000019C1
:10036000303D0090856119E00298BA00121902C868
:10037000916102902046E1688847012F054617D118
:10038000E06900281FDA202086431CE000980A213B
:100390008069484300994019303888612046E168F7
:1003A0008847054601F091FA0028EFD1012F0AD0C5
:1003B0002E2D08D12046E1688847054620200643B7
:1003C0007F1C022FC3DBA069002803DA4042A06132
:1003D00001200643F00701D0102086436C2D0BD07E
:1003E000682D09D04C2D3CD06A2D38D0742D38D0D2
:1003F0007A2D36D016E040E0E1682F462046884747
:10040000B842054609D16C2F29D001208002E1684D
:10041000064320468847054604E06C2F1DD0FF2088
:1004200001300643002D28D028464138192803D82A
:100430000120C00206432035204626602946029A44
:100440001646FFF77FFE002810D001280BD0F61DBE
:10045000F008C0000830029055E74020E1E7802016
:10046000D5E70020D3E7361D02964CE762682846A0
:10047000A1689047206A401C44E7206AFEBD000046
:1004800066160000D2B210B513029A1813049A1817
:1004900000F001F810BD01E004C0091F0429FBD2DF
:1004A0008B0701D50280801CC90700D002707047FD
:1004B00000290BD0C30702D00270401C491E02293C
:1004C00004D3830702D50280801C891EE3E7002243
:1004D000EEE70022DFE7704770477047F0B5FF2571
:1004E0002D04C609C209FF2704462E400137CB0957
:1004F0003E4348402A402B400746002A6BD0002B41
:1005000069D0AA4267D0AB4265D0002800DA3246F3
:100510000125ED0529432C4309022002090AD21ABC
:100520004B0C7F24E31A434C000A7C44E35C7D249B
:100530002404121914145B00A218884201D3521C1F
:1005400000E0400049420C465C4324115C43DB015F
:100550006415E318040A5C43C502200D0C464443AD
:100560006419250A5D432303EC0C0D466543000323
:100570000019EB184C42A34201D35B18401CD40570
:100580002018002B07D05B00C91804D3401C002999
:1005900001D1400840003F2189048A4209D3002A42
:1005A00008DC1106090F04D0032149074018C00FC9
:1005B000C007F0BD01224100120689187F225206B1
:1005C0009142F6D205214907C84201D59010F0BDED
:1005D000FF20C005F0BD002F00DA32461648AA42BF
:1005E00007D2AB4205D21902090E17D0F80FC00787
:1005F000F0BDFF2563002D06AB42F9D84900A942A2
:10060000F6D8AB4201D1A942F2D0A94201D10021D2
:1006100001E061004908D0050843F0BD1102090E50
:10062000FBD0FF200243D005F0BD0A46014610462C
:1006300054E700006B1400000000C07F0102C215E7
:1006400004D00123DB071943002A0ADB9E239A1AF0
:1006500002D40846D0407047FF2241001206914262
:1006600001D900207047C017C04370471F22030CF8
:1006700002D10F2200041CD0030E01D10002083A5F
:10068000030F01D10001121F830F01D18000921EC0
:10069000002801DB4000521ED205511802125118E9
:1006A0001922904004D3491C002801D1490849006F
:1006B00008467047C10FC90700D040420122920787
:1006C0001143D3E701218907D0E7FFB504460D4662
:1006D00081B0243000902168880604D51022E0699A
:1006E0009143216000E00120A84201DD471B00E0AA
:1006F00000270498A1697A191018081AA0612078B7
:10070000C00602D42046FFF773FD002608E00398D8
:100710006268A168805D9047206A401C761C206258
:1007200004988642F3DB2078C0060AD52046FFF7FE
:100730005FFD06E06268A16830209047206A401C97
:10074000206238467F1E0028F4DC07E000986268CB
:10075000A168405D9047206A401C206228466D1EBB
:100760000028F3DC2046FFF759FD2078000602D56B
:10077000022005B0F0BD0120FBE7000001694A1C22
:1007800002610878704700B58FB002910021059191
:100790000549019379440391114604906846FFF797
:1007A000ADFD0FB000BD0000E5FFFFFF0CC908392B
:1007B0009A4202D2531C0B601070704710B5436907
:1007C000002B02D0C046C04601E0FFF738FD0120F3
:1007D00010BD1278014624310A7000224A700122AD
:1007E000ECE711680022D243E8E701468008081AC6
:1007F00002091018020A1018020C1018C008820012
:1008000012185200891A01E0401C0A390A29FBD249
:100810007047754600F024F8AE4605006946534619
:10082000C008C000854618B020B5FFF7B3FC60BC17
:10083000B64600260027C0C5C0C5C0C5C0C5C0C5D6
:10084000C0C5C0C5C0C5403D490849008D46704778
:1008500010B50446C046C0462046FFF78DFC10BDCB
:10086000004870470000202001491820ABBEFEE779
:100870002600020070470000F0B581B01F4E3046E0
:1008800028380068C0B20A282ED11F480168491CC8
:1008900001601E4F386880B2FFF714FF1C4C2146E0
:1008A00001F01AF81B4D2946FFF718FE79681A4A1D
:1008B000106088B2FFF706FF214601F00DF82946C7
:1008C000FFF70CFE154908601549012008705421F6
:1008D0000B4A515C032901D00A4908704002316873
:1008E0000143316001B0F0BD54200549085C032884
:1008F00002D004480321017001B0F0BD481000404F
:1009000064002020A805202060002020806255403F
:100910003333534000F07F4598012020D800202039
:10092000D4002020B0B50A78032313400B4A845822
:100930000B4D2540EB18A92424061B1983500722D0
:1009400012064B6813401124240205599543EA18F6
:100950000251001949780161B0BDC0460808000085
:10096000FCFFFF00811E091F00BFFCD27047000082
:10097000F0B53C4A82183C4BC31808794E793B4D80
:100980003B4C002E23D0202804D00526F601002859
:1009900003D003E0374E002800D18826576F2F4040
:1009A00037435767976F2F4037439767566B2640FB
:1009B0005663966B264096630026566596658F268D
:1009C000F6435F6837405F609F6837409F608E796D
:1009D000096820280BD0002819D1491E5160D76E14
:1009E0002F4088210F43D7661746703719E0491EFC
:1009F0005160D16E29401F4F3943D166116F294094
:100A000039431167012149071B4D174609E0490881
:100A10005160D76E2F400521C9010F43D766174695
:100A200070373C682C400C433C60D16A104C21402C
:100A3000D162116B214011630021D16411658F21B6
:100A4000C943D46F0C40D4671C680C401C6006433B
:100A5000BD2030401168094B0B40C018801C10604D
:100A6000F0BDC046041800008418000024493E0070
:100A70008888FDFF01040000FFFFFFCF4000FFCF8B
:100A800010B507239B04194092008018024A84582D
:100A90009C436118815010BD3018000010B5029CB5
:100AA000A400001911431943014A815010BDC046EA
:100AB0005018000092008018014A81507047C046CB
:100AC0001018000010B50122120383180C789C60E6
:100AD0004B7883508978014A815010BD0C11000079
:100AE0001249084610380068114A02400DD00B68C0
:100AF00013430B60510D09D1C1040CD481040FD4F0
:100B0000000402D50B4804210170704709490122F5
:100B10000A70C104F2D5074902220A708104EFD598
:100B2000044903220A700004ECD4EEE748300A407E
:100B300000B020009C012020F0B588B00493029002
:100B400010463038C0B2092805D8052050435C4A09
:100B50008018F0380FE010466138C0B21A2800D271
:100B6000203A203AD0B23A2804D850B28000534AF2
:100B7000105800E0504800900D980690FF20C001EA
:100B8000059000263246019605E0039A521C062A7B
:100B9000019E00D18DE0052A079602D00098805C66
:100BA000079002980392101806E0E34DAB5CA34354
:100BB000AB54361D082EE8D084B27F2C1CD8731895
:100BC0009DB23F2D18D8079DF540ED07069F00D038
:100BD000049F07221A40012595401A01059B1A40DF
:100BE00013189AB2002F03D0D34FBB5C2B4302E003
:100BF000D14FBB5CAB43BB547F2C1DD8751C6B180D
:100C00009AB23F2A18D8079AEA40D207069F00D026
:100C1000049F07221A40012595401A01059B1A409E
:100C200013189AB2002F03D0C34FBB5C2B4302E0D2
:100C3000C14FBB5CAB43BB547F2C1DD8B51C6B189C
:100C40009AB23F2A18D8079AEA40D207069F00D0E6
:100C5000049F07221A40012595401A01059B1A405E
:100C600013189AB2002F03D0B34FBB5C2B4302E0A2
:100C7000B14FBB5CAB43BB547F2C9AD8F41C6318B8
:100C80009AB23F2A95D8079AE240D207069D00D033
:100C9000049D07221A40012494401A01059B1A4022
:100CA00013189AB2002D00D17FE7A34DAB5C23430C
:100CB0007EE708B0F0BDC046861B0000DC190000CE
:100CC0004F1B0000F0B583B00293019106461078E7
:100CD000002812D07F2E10D8089C551C0094B7B263
:100CE000C2B238460199029BFFF726FF28780028F8
:100CF00003D06D1CB61D7A2FF0D300F0C7F803B0F7
:100D0000F0BD000080B5002801D1024600E0FF22BE
:100D1000012081028848FFF7B5FB00F0B7F880BDDD
:100D2000F0B583B001200702BB4E376037650290F3
:100D3000450235603120C4437D200002FFF712FEDA
:100D4000641CF9D337603765356078242046FFF797
:100D500009FE376137642046FFF704FE35612046FF
:100D6000FFF700FE204600F023FA01903761376458
:100D70002046FFF7F7FD35602046FFF7F3FD3760AB
:100D800037652046FFF7EEFD0198002801D00021CD
:100D900022E037603765356078242046FFF7E2FDB2
:100DA000376137642046FFF7DDFD35612046FFF7E8
:100DB000D9FD7A2000F0FCF90190376137642046B4
:100DC000FFF7D0FD35602046FFF7CCFD3760376573
:100DD0002046FFF7C7FD019958480170AE2000F08A
:100DE0003DFCD52000F03AFC802000F037FCA82024
:100DF00000F034FC3F2000F031FCD32000F02EFC4A
:100E0000002000F02BFC4024204600F027FC8D2021
:100E100000F024FC142000F021FC202000F01EFC37
:100E2000022000F01BFCA12000F018FCC82000F0FC
:100E300015FCDA2000F012FC122000F00FFC8120DB
:100E400000F00CFCCF2000F009FCD92000F006FCDB
:100E5000F12000F003FCDB2000F000FC204600F055
:100E6000FDFBA42000F0FAFBA62000F0F7FB2E20EB
:100E700000F0F4FBAF2000F0F1FB029881022E4855
:100E8000FFF727FB00F002F803B0F0BDF0B585B026
:100E90000120060245020020274C5F4F02A961C1D4
:100EA00001905038C0B200F0D9FB029800F0D6FB98
:100EB000102000F0D3FB3E603E653D60782528465B
:100EC000FFF750FD3E613E642846FFF74BFD039857
:100ED00038612846FFF746FD18480078002800D002
:100EE0007A25049E284600F063F9402000F060F95E
:100EF000029D605D00F05CF96D1C802DF9D1464FBC
:100F00003E613E6478252846FFF72CFD039E3E6037
:100F10002846FFF727FD049838600498386528466E
:100F20003546049EFFF71EFD80340198401C0828BA
:100F3000B6D105B0F0BDC046A8012020A4012020F4
:100F400010B50124A0071249FFF7ECFC11484168D5
:100F5000114A0A4021045118416081680F4A0A4031
:100F60002106511881600E4900220A604C607D21E3
:100F700049024161816161020A4A136A0B431362AB
:100F800013680B43136001682143016010BDC04624
:100F9000901B000000110040FEFFECFFF8FFE0E0B6
:100FA000801100402810004010B5174885210160CD
:100FB00001225305154C236087234360920522606C
:100FC000016043600146503981220A60014654396C
:100FD0000A6001463C390A6001464C390A60014604
:100FE00048390A600A490A606E49C16001464439BD
:100FF000084A0A60014640390A6038380260D6481B
:1010000006490160016410BDB8804240D0120A4018
:10101000E480424081000C0090320A40004F0004FE
:10102000B0B582B0144C15492046FFF74BFD14496A
:101030002046FFF79DFC002500950C2320462946FD
:101040002A46FFF72BFD204629462A46FFF718FDC2
:101050000520C10120462A46FFF72CFD09480A4910
:1010600001600A4801218160094A13680B4313603B
:10107000016002B0B0BDC04600008640981B000071
:101080009C1B0000A4188640100010000011864030
:10109000281086400D48002101600320C1430C4800
:1010A000021F13680B4013604168012291434160A5
:1010B000110242688A434260016830229143016014
:1010C00001680F22914301607047C04608030B403E
:1010D00004010B407047000080B500F011F8FFF7E5
:1010E00063FFFFF7D7FFFFF79BFFFFF729FFFFF72E
:1010F000F1FFB820014900220A5480BDDC00202005
:1011000010B5094809494160094A5160094B5960C5
:10111000094C61600949016011601960216010206B
:10112000FFF720FC10BDC04600080A40030000B1D4
:1011300000280A4000088640000800400100002600
:10114000014800687047C04620108640B0B554245E
:1011500000250555C564C562856241620549C161C6
:10116000054981610561C560049981600CC0856194
:10117000B0BDC0463333B33E0000204108480949A2
:1011800001604160C1600848016A084A1143016278
:10119000016811430160FE48022101607047C046AA
:1011A0007480424081000E0028300A4000B02000C8
:1011B000F0B581B001273E02009040B2002803D470
:1011C00065480661066402E06348066006657825A6
:1011D0002846FFF7C7FB7F025F4C27602846FFF7D2
:1011E000C1FB27612846FFF7BDFB0098400603D4EA
:1011F00059480661066402E057480660066578258E
:101200002846FFF7AFFB544C27602846FFF7AAFBA0
:1012100027612846FFF7A6FB0098800603D44E48B6
:101220000661066402E04C4806600665782528469B
:10123000FFF798FB484C27602846FFF793FB276190
:101240002846FFF78FFB0098C00603D4424806618A
:10125000066402E040480660066578252846FFF7E8
:1012600081FB3D4C27602846FFF77CFB2761284621
:10127000FFF778FB0098000703D43748066106643F
:1012800002E035480660066578252846FFF76AFBC8
:10129000314C27602846FFF765FB27612846FFF79A
:1012A00061FB0098400703D42B480661066402E006
:1012B00029480660066578252846FFF753FB264C2B
:1012C00027602846FFF74EFB27612846FFF74AFBB9
:1012D0000098800703D4FD480661066402E0FB48DD
:1012E0000660066578252846FFF73CFBF74C27602B
:1012F0002846FFF737FB27612846FFF733FB0098A6
:10130000C00703D1F1480661066402E0EF480660B9
:10131000066578242046FFF725FBEC4D2F6020461C
:10132000FFF720FB2F612046FFF71CFB2E602E6588
:101330002046FFF717FB2F602046FFF713FB0748F7
:101340000568E24807612046FFF70CFB354068421C
:10135000684101B0F0BDC04690320A4080330A4077
:1013600088B0FFF7B9FE8848002606604660FFF7A0
:1013700005FF86481025056001229104016084481C
:10138000056001608348001F016811431446039201
:101390000160814F3E608148814901600520C101A3
:1013A000804802913246FFF785FB7F490868204359
:1013B0000860FFF7B5FC3046FFF7A4FC00967BA25F
:1013C0007D4C304631462346FFF77CFC00967BA2DD
:1013D000304629462346FFF775FC00961C2179A26A
:1013E00030462346FFF76EFC0096282177A2304650
:1013F0002346FFF767FC0096342176A23046234649
:10140000FFF760FC0796009674487549754A764B5D
:10141000FFF79CFE03980402049474480068744922
:10142000FFF75CF8734900F057FAFFF707F9044635
:101430007D20C5002046294600F04CF9034645436F
:10144000601B6D490C686D49096806913968059102
:10145000009018256A48064629466AA2FEF7A8FEAB
:10146000079800902A27102138463246524BFFF742
:1014700029FC20466749FFF731F85E4C214600F011
:101480002BFAFFF7DBF803463046294662A2FEF747
:101490008FFE079800901C2138463246464BFFF7D6
:1014A00011FC0598214600F017FAFFF7C7F804462B
:1014B0000A26314600F00EF903464643A01B079C5E
:1014C00000904F4E3046294656A2FEF771FE00941A
:1014D000282138463246384BFFF7F4FB5548005771
:1014E000032803D8800055A10B5800E052A318240C
:1014F000434F3846214655A2FEF75AFE079E0096F6
:101500002A20342529463A462B4BFFF7DBFB3C4F7C
:10151000384621464EA2069BFEF74AFE0096522010
:1015200029463A46244BFFF7CDFBFFF7AFFC19489D
:101530000068049C2042184F03D1164908682043D4
:101540000860444E3078002809D04348386021466E
:101550006C311448079D2A46FFF7ACFA35705420C9
:101560001E49085C0328334D00D056E7079A3A60BD
:101570000C480299FFF79EFA032028700A4A106867
:1015800003998843106048E7B080424080E200E061
:1015900000E100E004110040A0012020000800400C
:1015A000010000260000864004188640424D53206A
:1015B0004241534943000000FFFF0000564241549E
:1015C0003A000000494348473A0000004455545946
:1015D0003A000000535441543A00000064002020B7
:1015E000666686400AD7A33C6F12833A9801202092
:1015F0000AD7233E00007A44D80020206000202033
:10160000BC002020256C752E2530336C75562020AB
:1016100020000000CDCC0C4025756D4120202020FD
:1016200000000000256C752E256C752525202020D6
:1016300020000000A80520203F000000A41B00009F
:10164000AE1B0000A91B0000B21B000025730000A8
:1016500025750000D4002020F628DC3EF0B583B0CC
:10166000029001200602194F3E603E6545023D6032
:1016700017480078019078242046FFF773F93E61FF
:101680003E642046FFF76EF93D612046FFF76AF998
:101690000198002801D1204600E07A20FFF788FD5C
:1016A0000020FFF785FD0298FFF782FD3E613E6452
:1016B0002046FFF757F93D602046FFF753F93E609B
:1016C0003E652046FFF74EF903B0F0BD90320A4068
:1016D000A401202043088B421AD3002203098B4225
:1016E00079D3030A8B425ED3030B8B4242D3030CA4
:1016F0008B4227D30902FF2212BA030C8B4202D37A
:101700001212090203D0030B8B4233D31AE0D3E049
:10171000411A8041401C704703460B4371D4430873
:101720008B42F5D3002203098B4254D3030A8B4228
:1017300039D3030B8B421DD3030C8B4202D3944647
:101740006EE0090AC30B8B4201D3CB03C01A52418E
:10175000830B8B4201D38B03C01A5241430B8B4244
:1017600001D34B03C01A5241030B8B4201D30B032D
:10177000C01A5241C30A8B4201D3CB02C01A524154
:10178000830A8B4201D38B02C01A5241430A8B4217
:1017900001D34B02C01A5241030A8B4201D30B0200
:1017A000C01A5241CDD2C3098B4201D3CB01C01A1A
:1017B000524183098B4201D38B01C01A5241430924
:1017C0008B4201D34B01C01A524103098B4201D312
:1017D0000B01C01A5241C3088B4201D3CB00C01A7F
:1017E000524183088B4201D38B00C01A52414308F7
:1017F0008B4201D34B00C01A5241411A5241100092
:101800007047CA0F00D04942031000D340425340F2
:1018100000229C4603098B422DD3030A8B4212D32C
:101820008901FC2212BA030A8B420CD3890192115E
:101830008B4208D3890192118B4204D3890137D09E
:10184000921100E08909C3098B4201D3CB01C01A70
:10185000524183098B4201D38B01C01A5241430983
:101860008B4201D34B01C01A524103098B4201D371
:101870000B01C01A5241C3088B4201D3CB00C01ADE
:10188000524183088B4201D38B00C01A5241D9D2F6
:1018900043088B4201D34B00C01A5241411A00D277
:1018A00001465241104663465B1000D340427047E8
:1018B00063465B1000D3404201B50021004201D0D5
:1018C000C9430846C046C04602BD30380A2801D286
:1018D000012070470020704770B5420064414B0002
:1018E0005C41120E39D01B0E38D0FF2A3CD0FF2BA2
:1018F0003AD0D2187F3A40024902400A490A4518B4
:10190000ED0106004E43000A090A48430104731A18
:101910004019190C4318990F04D05B08012149079D
:101920005B1A521CD80904D3401CF50301D19D0653
:1019300007D0FF2A08D2D50506D0E4072043401976
:1019400070BD0125A843F4E7002A01DCE00770BD63
:101950002402FF202043C00570BD1B0EFF2A03D0C8
:10196000FF2B01D0E00770BDFF2636064500B542CB
:1019700006D84D00B54203D8D218FF2A00D0E7E7B9
:10198000004870BD0000C07F040000080000000097
:101990000000000200010000108182838485868798
:1019A00088898B8C8D8E8F919293959697999A9C1E
:1019B0009D9FA0A2A3A5A7A8AAACAEB0B2B3B5B78D
:1019C000B9BCBEC0C2C5C7C9CCCED1D4D7D9DCDF63
:1019D000E2E6E9ECF0F3F7FAFE0000003B1B000042
:1019E000861B0000861B0000861B0000861B000073
:1019F000811B0000861B0000861B0000861B000068
:101A0000861B0000861B0000861B0000861B000052
:101A10004A1B0000451B00008B1B0000861B0000BA
:101A2000861B0000861B0000861B0000861B000032
:101A3000861B0000861B0000861B0000861B000022
:101A4000861B0000401B0000861B0000861B000058
:101A5000861B0000861B0000861B0000861B000002
:101A6000C81A0000CD1A0000D21A0000D71A0000D0
:101A7000DC1A0000E11A0000E61A0000EB1A000070
:101A8000F01A0000B81B0000BD1B0000F51A000092
:101A9000FA1A0000FF1A0000041B0000091B0000D6
:101AA000091B00000E1B0000131B0000181B000088
:101AB0001D1B0000221B0000271B00002C1B000028
:101AC000311B0000361B00007E1111117E7F494939
:101AD00049363E414141227F4141221C7F494949CB
:101AE000417F090909013E4149497A7F0808087F79
:101AF00000417F41007F404040407F020C027F7FD9
:101B00000408107F3E4141413E7F090909067F09D3
:101B1000192946464949493101017F01013F4040A9
:101B2000403F1F2040201F494949362812140814FD
:101B30001207087008071E0204081E0000000000BB
:101B40000036360000006060000008080808083E03
:101B50005149453E00427F40004261514946214182
:101B6000454B311814127F1027454545393C4A49E9
:101B70004930017109050336494949360649492961
:101B80001E62640813230201510906201008040292
:101B900001050000000000000800000080020000B5
:101BA0000001000049444C4500444F4E4500434865
:101BB00047004641554C54000281FE8000FF2050F2
:101BC0008F00000000000000D81B00000000202053
:081BD000B0060000280100002E
:04000005000000C136
:00000001FF
